:020000040000fa
:080000000001040000000000f3
:020000040000fa
:0400080032020000c0
:020000040000fa
:04000c0032020000bc
:020000040000fa
:0400100032020000b8
:020000040000fa
:0400140032020000b4
:020000040000fa
:0400180032020000b0
:020000040000fa
:04001c0032020000ac
:020000040000fa
:0400200032020000a8
:020000040000fa
:0400240032020000a4
:020000040000fa
:0400280032020000a0
:020000040000fa
:04002c00320200009c
:020000040000fa
:040030003202000098
:020000040000fa
:040034003202000094
:020000040000fa
:040038003202000090
:020000040000fa
:04003c00320200008c
:020000040000fa
:040040003202000088
:020000040000fa
:040044003202000084
:020000040000fa
:040048003202000080
:020000040000fa
:04004c00320200007c
:020000040000fa
:040050003202000078
:020000040000fa
:040054001002000096
:020000040000fa
:040058003202000070
:020000040000fa
:04005c00320200006c
:020000040000fa
:040060003202000068
:020000040000fa
:040064003202000064
:020000040000fa
:040068003202000060
:020000040000fa
:04006c00320200005c
:020000040000fa
:040070003202000058
:020000040000fa
:040074003202000054
:020000040000fa
:040078003202000050
:020000040000fa
:04007c00320200004c
:020000040000fa
:040080003202000048
:020000040000fa
:040084003202000044
:020000040000fa
:040088003202000040
:020000040000fa
:04008c00320200003c
:020000040000fa
:040090003202000038
:020000040000fa
:040094003202000034
:020000040000fa
:040098003202000030
:020000040000fa
:04009c00320200002c
:020000040000fa
:0400a0003202000028
:020000040000fa
:0400a4003202000024
:020000040000fa
:0400a8003202000020
:020000040000fa
:0400ac00320200001c
:020000040000fa
:0400b0003202000018
:020000040000fa
:0400b4003202000014
:020000040000fa
:0400b8003202000010
:020000040000fa
:0400bc00320200000c
:020000040000fa
:0400c0003202000008
:020000040000fa
:0400c4003202000004
:020000040000fa
:0400c8003202000000
:020000040000fa
:0400cc0032020000fc
:020000040000fa
:0400d00032020000f8
:020000040000fa
:0400d40032020000f4
:020000040000fa
:0400d80032020000f0
:020000040000fa
:0400dc0032020000ec
:020000040000fa
:0400e00032020000e8
:020000040000fa
:0400e40032020000e4
:020000040000fa
:0400e80032020000e0
:020000040000fa
:0400ec0032020000dc
:020000040000fa
:0400f00032020000d8
:020000040000fa
:0400f40032020000d4
:020000040000fa
:0400f80032020000d0
:020000040000fa
:0400fc0032020000cc
:020000040000fa
:0401000032020000c7
:020000040000fa
:0401040032020000c3
:020000040000fa
:0401080032020000bf
:020000040000fa
:04010c0032020000bb
:020000040000fa
:0401100032020000b7
:020000040000fa
:0401140032020000b3
:020000040000fa
:0401180032020000af
:020000040000fa
:04011c0032020000ab
:020000040000fa
:0401200032020000a7
:020000040000fa
:0401240032020000a3
:020000040000fa
:04012800320200009f
:020000040000fa
:04012c00320200009b
:020000040000fa
:040130003202000097
:020000040000fa
:040134003202000093
:020000040000fa
:04013800320200008f
:020000040000fa
:04013c00320200008b
:020000040000fa
:040140003202000087
:020000040000fa
:040144003202000083
:020000040000fa
:04014800320200007f
:020000040000fa
:04014c00320200007b
:020000040000fa
:040150003202000077
:020000040000fa
:040154003202000073
:020000040000fa
:04015800320200006f
:020000040000fa
:04015c00320200006b
:020000040000fa
:040160003202000067
:020000040000fa
:040164003202000063
:020000040000fa
:04016800320200005f
:020000040000fa
:04016c00320200005b
:020000040000fa
:040170003202000057
:020000040000fa
:040174003202000053
:020000040000fa
:04017800320200004f
:020000040000fa
:04017c00320200004b
:020000040000fa
:040180003202000047
:020000040000fa
:040184003202000043
:020000040000fa
:04018800320200003f
:020000040000fa
:04018c00320200003b
:020000040000fa
:040190003202000037
:020000040000fa
:040194003202000033
:020000040000fa
:04019800320200002f
:020000040000fa
:04019c00320200002b
:020000040000fa
:0401a0003202000027
:020000040000fa
:0401a4003202000023
:020000040000fa
:0401a800320200001f
:020000040000fa
:0401ac00320200001b
:020000040000fa
:0401b0003202000017
:020000040000fa
:0401b4003202000013
:020000040000fa
:0401b800320200000f
:020000040000fa
:0401bc00320200000b
:020000040000fa
:0401c0003202000007
:020000040000fa
:0401c4003202000003
:020000040000fa
:0401c80032020000ff
:020000040000fa
:0401cc0032020000fb
:020000040000fa
:0401d00032020000f7
:020000040000fa
:0401d40032020000f3
:020000040000fa
:0401d80032020000ef
:020000040000fa
:0401dc0032020000eb
:020000040000fa
:0401e00032020000e7
:020000040000fa
:0401e40032020000e3
:020000040000fa
:0401e80032020000df
:020000040000fa
:0401ec0032020000db
:020000040000fa
:0401f00032020000d7
:020000040000fa
:0401f40032020000d3
:020000040000fa
:0401f80032020000cf
:020000040000fa
:0401fc0032020000cb
:020000040000fa
:10020000af8c20000eff27000e01880000000000c8
:10021000000020000000e000020032000001200089
:100220002002880014000700050107000000e0001c
:1002300003003a0000ec200001002000020037001b
:100240000000200001002000810f7000010032003a
:1002500014000700000020000000e000020032004f
:100260000000020000000000d60a020000000000aa
:100270000040da000000fe004440a9000003200016
:100280000000e00003003200002020009001880000
:100290004440a800000006008a1f78008b1f7800e9
:1002a00000000600a1028800800478000000eb0036
:1002b0001f003700e284440054a0b4009905ba003e
:1002c000e284440054a0b4009906ba00e2844400d9
:1002d00054a0b4000006eb00476fde00fd07b2003b
:1002e000ae018800636ce10003003a00eaff0700fa
:1002f0000000eb000e003700606ce10008003a00df
:10030000004deb000a05e800020039003420ec0043
:100310000af0a0008b05e900f9ff3e000400370059
:100320006168e100010032000086eb000b0007006d
:1003300019c7ba001905ba000e04e00003003a001c
:100340000a00e000dbff3a0000000600fe07b200f2
:10035000ae0288008a047800f5ff37000cd0a300b5
:10036000e20f4d001c00390089027800354dba00bb
:100370000a05e800020039003420ec000af0a00071
:100380008b05e9000f003200254dba000a05e80090
:10039000020039003420ec000af0a0008b05e900cf
:1003a000080032000c00e0000600320015cdba0053
:1003b0000a05e800020039003420ec000af0a00031
:1003c0008b05e9008984e80054a0b4000b00e0002c
:1003d000e2ff3a00000006009902ba00055d7800cd
:1003e0008b05e900f7ff3200c82ade00055d7800c2
:1003f0008b05e900f3ff32000c00e000f1ff320052
:1004000019ddba00eeff37002203040000000000ef
:100410004c05040000000000000004000000000083
:100420003600f800809fbe00829fbe00849fbe0001
:10043000869fbe000000fa00f01c8000004078009b
:100440009c0407008960a9000080fa004f03be00e9
:100450004f02be004f01be004f00be003600f90043
:10046000004006000040da000000fe000a00fa002a
:1004700011002000b1bf9f00c0bf9f006a805700dd
:10048000260407004fb897000080fa00000006001d
:100490000a00fa00e20f500034003e0030468000af
:1004a000e10f500003003200e20f500011003a004b
:1004b0000c003700833920000300e00001003a00ff
:1004c0000040da009803e20002003500a023ef00ac
:1004d00099e3a8009b43ab000d003a009b43a800a2
:1004e0000b003700e33a20000300e00001003a006f
:1004f0000040da00ae03e20002003500b623ef0050
:10050000afe3a800b143ab0001003a00b143a8003b
:10051000820178000b0037003102fb00e10f500030
:1005200004003a009b23ab00feff3a00e41c880065
:1005300003003700b123ab00feff3a00941d880092
:100540008301e9000300e000f3ff3a00e10f5000ef
:1005500003003a009b03ab00feff32000b003700a4
:10056000b103ab00feff320008003700330020006b
:10057000b3bf9f00c0bf9f00d1bf9f00e2bf9f00dd
:100580006a805700e70307006fb997000200780000
:100590000080fa00000006000a00fa005100200066
:1005a000b1bf9f00c0bf9f006a805700df030700f4
:1005b0005fb897000080fa0000000600889fbe0028
:1005c00080047800404680000000e00004003a000b
:1005d0000e0007000084eb000000e000080035007a
:1005e000484680000900e000050032000900440090
:1005f000060007000000e00001003d000084eb0061
:10060000080078004f04be0000000600800078005b
:100610000100e00003003a0000002000404688008e
:10062000000005000080eb0002002000828f5000d7
:1006300002003e00414688000000eb00000006007a
:1006400000000500889fbe000004780001007800cb
:1006500082047800880178000901780011002000e8
:100660000e000700890f5000010032000004eb006b
:10067000080078004f04be00000006000000fa00e9
:10068000e88157004fb99700618320002032200095
:10069000580107000080fa0000000600889fbe0095
:1006a0008a9fbe008c9fbe008e1f780000067800d7
:1006b0000104780002007800830478000881b90002
:1006c000020778000200e000420032000800e0006b
:1006d0004100320082057800c90090006900900056
:1006e000808f500004003900090078005000070096
:1006f0000000e000290035000040200019006000e3
:100700000a0032000b017800a10020000c007800e4
:1007100036000700800678000d00e0000600320079
:10072000610516000a854600040037000b057800b5
:100730008006eb00010037000b05780049009000af
:10074000e9009000808050008a8f50000200310044
:10075000010578008006eb000a0178008c00780023
:100760002c0007008a855500490090000a004000cf
:10077000c00498000d00e000040032000900780079
:10078000d50007000000e00004003a000b00e00084
:10079000020032000a064600cfff3700008020002a
:1007a000190060000200320009007800ca0007004a
:1007b00000c02000190060000200320049009000d3
:1007c000e00498008b055700110009008885d800c7
:1007d000010037000000eb004f0778004f06be0015
:1007e0004f05be004f04be000000060003003700a6
:1007f000b0cf1000050032000201e900800178004e
:100800000200e000faff3a00000005000300780053
:10081000000006008001780002003700b15978001e
:100820000201e9000200e000fcff3a0000000600bf
:10083000889fbe008a1f780000047800c8009000de
:10084000680190000000eb00828f50003c003900ee
:10085000180078002200290002016000e20f510018
:1008600007003200012024000000e00001003d00ec
:1008700001202000008c70000080eb003000370069
:100880000200260002006000820f500009003a00ba
:1008900038009000808f5000060039000800780072
:1008a0008d000700800078000080eb000100e00070
:1008b00023003a001805780000c020000000650001
:1008c00018003a00a80490006002200008004000d0
:1008d000808f540013003a00002020000b02070014
:1008e000200498000000e00005003a002904980068
:1008f000490498008904e80039049800080037008a
:100900000a60a0000a0c7800400498000120200032
:100910008080400031049800400c9800500c9800f2
:100920000c00070028009000500498003800900048
:100930006004980000002600180c70000000eb0016
:100940004f0578004f04be0000000600c054200090
:100950009c003700881f7800288c20001804e000d5
:1009600003003a00f9ff070020c0b300004c7800f4
:100970004f04780000000600889fbe000004780045
:10098000080078005400070080047800000420006c
:100990001800600002003200280090007601070075
:1009a0000000eb0020049800384090000004e000b4
:1009b000050035000000fb00acfe07000000e00071
:1009c000010032008084eb00181090000000e0006d
:1009d00008003200f0fe07000000e00001003200d5
:1009e0008084eb0018109000630107000000eb000a
:1009f0001014980000082000180060001500320054
:100a00000001eb006000b800638820000202d00003
:100a100063027a00880f520005003a00000040008f
:100a200081804800008041000008eb00060037008c
:100a300061004000e08048000201e800e80f50003b
:100a4000e08f5800f0ff3a00080078004a010700e4
:100a50000e003700000c780000c0eb003044980016
:100a60006002200008004000200498004004980024
:100a700050049800400c980060049800500c9800b6
:100a80007004980076004400000c9800090078007b
:100a90004f04be0000000600881f78000004eb0031
:100aa0006140b800e2ff2f00f3ff2f00a102070012
:100ab00042892000620078000000e000010032005e
:100ac000adff07000804e800e80f5400f4ff3a0007
:100ad0004f04780000000600889fbe0000047800e4
:100ae0000800e0000f003a008004eb0009047800e1
:100af0008800d00060882000610078000000e000dd
:100b000004003200f4ff07000000e00001003d0097
:100b10008084eb000804e800e80f5400f4ff3a007a
:100b20002500370000002200180060008004eb0060
:100b300021003200a80490000f0037000901510085
:100b4000384090000000fb008900780050fe07004c
:100b50000000e00007003c002800900040049800de
:100b600060049800500c98001890a0008084eb005e
:100b7000110037008084440048019000828f5400a7
:100b8000eeff39002800900040049800980078009b
:100b900002c020000281600001003a00380090008d
:100ba00001e8a30002003200600498000100370051
:100bb000500c98008004eb00090078004f04be0040
:100bc00000000600010020000100e00008003200e3
:100bd000010080000100e000050032008100e90012
:100be000010088008100d0000200800000b1780080
:100bf000000006006200fa00889fbe008a1f78008d
:100c000000057800810478000204780083007800f1
:100c100080f92f000f0040003e0207009a979f00c6
:100c2000a9979f000000eb00b09f9f001885fb0074
:100c30008a04fb000a05ea004f55de00500220003e
:100c4000808f54000d003200e10f55000b003a0078
:100c50000a017800880078002f9097009f919700f4
:100c600003000100a0979f000000e0008e0032000a
:100c70003f9897000000e800b09f9f000a044400de
:100c800050022000808f5400040032000900e00070
:100c9000e6ff3a003f989700840037000000eb0021
:100ca000909f9f00809f9f00f0979f00e0979f007c
:100cb000d0979f00c0979f0007003700a18a2000af
:100cc0000100500000004000e18920006100780030
:100cd000df98970001007000d09f9f008804780083
:100ce00009047800384578008a00fb00a08a2000bb
:100cf000300107000000e000f0ff3a00a1c2b3009d
:100d0000814f55000e003a00cf8897000180e9001e
:100d1000c08f9f0010007800c09f9f000000e0007f
:100d200005003d000000ea00c09f9f005f9897000b
:100d30000020a000d09f9f000904e8000f003700aa
:100d4000c09f9f000000eb0005003700f2ff270066
:100d5000820f5000020032006a01b9000280400098
:100d60000904780088047800b900fb000103b10091
:100d7000e98f5000f5ff3600c09f9f00e0c2b3002e
:100d8000984f1000020032000080eb00190037007d
:100d9000a0c2b300d84f100007003a00cf889700d8
:100da0000180e900c08f9f0010007800a09f9f0085
:100db0000804e800100037000000eb00a09f9f002f
:100dc0008800780005003700f3ff2700830f5000ec
:100dd000020032006a02b9000400410001047800f8
:100de000880078003101fb000203b100e90f5100d7
:100df000f5ff3600a09f9f00984478008900fb0013
:100e000060892000eb0007000000e00002003200d3
:100e10000804e800010037008044eb00c97f9f0010
:100e200080c6b30080cf540004003a0098cf14006d
:100e30000a003a006640500006003700c0c6b30002
:100e400080cf540005003a0098cf140003003a0008
:100e500065404000c07f9f000804e8001801fb00c7
:100e6000e3fb2f008f81410081f92f008f8040002c
:100e7000a0f92f000f004000100007000000e00064
:100e800009003a00e1fb2f008f804000a0f92f00fd
:100e90000f004000e30007000000e0000200350002
:100ea0000804e80061ff37000080eb004f05780080
:100eb0004f04be000080fa0000000600889fbe00bc
:100ec0008a1f78000004780030c5b300804f5100bd
:100ed0000800320030c7b300804f510005003200d7
:100ee00051c2b30078009000814f510017003a00c2
:100ef000140037001180e9008008780010057800a0
:100f00006a049800d80c90000900e00004003d003d
:100f10000a007800b300070080047800070037005b
:100f2000090178008000eb000a0078002ffe07001e
:100f30000000e000010032008a045000190c980003
:100f40000900370082717800050037008081410078
:100f50000204e00001003a00014178008249780073
:100f60000000e800700498000000eb004f057800d6
:100f70004f04be00000006000000e0002f00320019
:100f8000c0017800e38f51002c0036000308a30055
:100f90002a003a00014680000100e0000200320011
:100fa000810f5000040031001100980000468800b5
:100fb0001600370082007800110190000200e00066
:100fc00002003200800f5100faff39001102780050
:100fd00084824000850f500018003900808f520035
:100fe00003003a0083084200010078000700370040
:100ff0000200e0000300320083014000830f510033
:101000000e003900120098009000980090009000a7
:101010000100e0000900320010014000828f500002
:1010200006003a00e28b20000009eb001001780076
:101030001108410091009000110098000000060086
:10104000889fbe0000047800f14580000100e000a8
:1010500002003200010078000d00370001468000d8
:10106000008c200004003700910f5400250036004a
:101070000180e800910090000100e000faff3a00d2
:1010800010003700920f54001e0036000280e80066
:10109000100178000200e000faff3a001101780028
:1010a00001468000008c200004003700910f54009e
:1010b000140036000180e80091009000828f5000fb
:1010c000faff3a0029468000888f54000100310061
:1010d0008804780009007800480007000000e0005c
:1010e00004003a00888f5400050032008904d100c2
:1010f000f5ff3700091878009fff0700d2ff37007f
:101100000000eb004f04be0000000600881f7800be
:10111000630440000800a1008000eb00800f540031
:1011200021003600e30f540001003e00480020007b
:1011300008007800c2ff07008000eb000000e0001c
:10114000190032009000780091017800648151000c
:10115000880f51000300310011019000020878004f
:1011600007003700088140000208780091019000d4
:101170001301980010017800110914008808780004
:10118000100178000000eb000200e00004003200d3
:10119000920190000300e000010032000280e800ac
:1011a000f04588008180e800010078004f04780055
:1011b00000000600020037000304e00006003200d1
:1011c0000001780002007800b041780081cf510022
:1011d000f9ff3a00010037000001eb00020078003f
:1011e0000000060080007800010178003104e00072
:1011f000fdff3a000000510000000600800078006a
:101200000000eb000100e000050034000100780060
:10121000eafc0700e10f400001003a000000eb008b
:10122000000006000400fa00889fbe008a9fbe00ee
:101230008c1f78000004780001067800f80d9000fb
:101240007800900080855500080890008085550042
:10125000180890008085550028089000808555006a
:10126000380890008085550048089000808555001a
:101270000002220090bf9f0000032300a0bf9f0038
:10128000081090000028a30015003a000b00e000b1
:10129000130034000b0578008a047800e20f550033
:1012a0000100360029002000c801900009017800e3
:1012b000ee80570058009000030001005004980091
:1012c0000000e0008c003200680890000900400037
:1012d000600c9800090555004240a900eeff3c0053
:1012e000780190000200e0000c003400c80190007a
:1012f0008c00780058009000030001005004980012
:101300008080eb000000e0007c003200e8089000e4
:101310007800900000804000600c9800880c9000dd
:101320000900e0001100340009057800e28f540044
:10133000010036002a002000c80190000a01780050
:10134000ec80570058009000030001005004980002
:101350000000e00068003200680890000a004000c9
:10136000600c98008a845400edff37001809900043
:101370000200e0000c003400c8019000e80090007a
:101380005800900003000100500498008080eb009a
:101390000000e00059003200e808900018089000b2
:1013a00000804000600c9800a80c90000900e0004c
:1013b0001100340009057800e28f54000100360066
:1013c0002a002000c80190000a017800ec80570034
:1013d0005800900003000100500498000000e00055
:1013e00045003200680890000a004000600c980038
:1013f0008a845400edff3700380990000200e000b5
:101400000e003400e8009000180890008080400032
:10141000c80190005800900003000100500498009b
:101420008080eb000000e00034003200e80890000b
:101430003808900000804000600c9800c80c9000b4
:101440000900e0001100340009057800e28f540023
:10145000010036002a002000c80190000a0178002f
:10146000ec805700580090000300010050049800e1
:101470000000e00020003200680890000a004000f0
:10148000600c98008a845400edff3700081090002b
:101490008000eb000028a300180032000b00e000e1
:1014a000160034008b04780009057800e28f5400a0
:1014b000010036002a002000c80190000a017800cf
:1014c000ee8057005800900003000100500498007f
:1014d0000000e00008003200680890000a004000a8
:1014e000600c98008a8454004240a900eeff3c0042
:1014f0008000eb00010037008080eb0001007800e5
:101500004f0678004f05be004f04be000080fa0071
:1015100000000600010878000000060000c0da00a4
:101520000000060000c0da000000060000c0da007b
:1015300000000600020ab900001bb9000200b80052
:0c15400081004200810043000000060012
:020000040000fa
:10154c000d0a0000426f00006e6a00006f7500000b
:10155c007200000050720000656d000069650000ab
:10156c007200000044650000757800006965000099
:10157c006d65000000540000726f0000697300007c
:10158c00696500006d650000005100007561000088
:10159c0074720000696500006d65000000000000b9
:020000040000fa
:1015ac000000fa000600070060aa2800801f7800df
:1015bc002ffc07008f87e9000c000700feff3700a7
:1015cc000000fa00f9000700300320004a0207006f
:1015dc000828ef000a68ef000b68ef000c68ef00ba
:1015ec000d68ef000080fa00000006000000fa0011
:1015fc000135800000002200008060000000e00047
:10160c0004003a0011c0b3000040eb00fc000700de
:10161c00030037008040eb000040eb00f8000700af
:10162c000135800000042000008060000000e00014
:10163c000e003a000ac8bf000004e0000c003a009b
:10164c0010c0b3000ae8b700008b20006b02070043
:10165c0000000000013580000004200000806000c4
:10166c000000e000fbff3200010037000a68ef00c9
:10167c00404080000000e80040408800414080006d
:10168c0000712200808f5000030036000828ef0004
:10169c0010c0b30023010700c080200033000700f6
:1016ac000080fa00000006000200fa00004f7800eb
:1016bc001e407800450207001e4078000500070018
:1016cc00d18020001e407800490007000080fa00fd
:1016dc00000006000200fa00004f78001e80fb009c
:1016ec0051042000810f50001a00320051042000d8
:1016fc00810f500004003c0011042000810f5000a9
:10170c000c0032001700370011062000810f50002a
:10171c000400320051062000810f500009003200f5
:10172c001000370011c0b30020c0b300b400070094
:10173c000c00370011c0b30020c0b300b00007008c
:10174c00080037008040eb0020c0b300ac0007005d
:10175c00040037008040eb0020c0b300a800070055
:10176c00000000000080fa00000006000200fa00f1
:10177c00000f78000135800000002200008060001e
:10178c000000e00018003a000bc8bf000004e000a5
:10179c0015003a000b68ef001e007800104078002e
:1017ac00e34f5000030036001e0078008040eb0031
:1017bc00014878001e007800104078000080fb0083
:1017cc0001802000000040000080400010007800e4
:1017dc000a0207001e007800104078008040e800e4
:1017ec001e007800014878000080fa000000060016
:1017fc000600fa0020479800210798000040eb00f3
:10180c00004f7800050037001e80fb00818b200004
:10181c000041eb00827078001e4fe8001e407800fb
:10182c00e44f5000f8ff3600808b2000ae40900053
:10183c00014878002e00900011c0b30001487800d8
:10184c002e009000104078000004e00004003200ec
:10185c002e409000ed4f500001003a0002000700ae
:10186c000080fa00000006000000fa00908b2000b7
:10187c00104078000080fb0061032000810f5000b5
:10188c002c00320061032000810f50000a003c0044
:10189c0041032000810f500018003200410320004a
:1018ac00810f50001c003c0031032000810f5000c0
:1018bc000b0032003b00370081032000810f5000e9
:1018cc002a00320081032000810f500020003500d7
:1018dc0091032000810f50002b00320031003700a3
:1018ec00b08b200010407800614060008040780090
:1018fc000040eb00420007002a003700b08b2000ac
:10190c0010407800614060008040780010c0b30047
:10191c003b00070023003700b08b200010407800fc
:10192c00614060008040780020c0b30034000700a4
:10193c001c003700b08b2000104078006140600024
:10194c008040780030c0b3002d0007001500370030
:10195c00b08b20001040780061406000804078001f
:10196c0040c0b300260007000e003700b08b2000eb
:10197c0010407800614060008040780050c0b30097
:10198c001f00070007003700b08b200010407800c4
:10199c00614060008040780060c0b3001800070010
:1019ac00000000000080fa00000006000000fa00b1
:1019bc006626ef006206a9006226a9006b26a90024
:1019cc006246a9006266a9006286a90062a6a90007
:1019dc006ac6a90062c6a9006ae6a90062e6a80068
:1019ec00a226ef00a6c6a9009ec6a800a6e6a900de
:1019fc009ee6a8009fa6a8000080fa000000060042
:101a0c000200fa00004f7800114798001e80fb007e
:101a1c00e30f500025003200e30f500007003c009c
:101a2c00e10f500013003200e10f500018003c0091
:101a3c000000e0000800320038003700e50f5000cd
:101a4c0028003200e50f50001f003500e60f500053
:101a5c002b003200310037001e409000e14f500047
:101a6c0002003a006606a8002c0037006606a900a2
:101a7c002a0037001e4090000004e00002003200f3
:101a8c006626a800250037006626a900230037002b
:101a9c001e4090000004e000020032006646a800e0
:101aac001e0037006646a9001c0037001e4090003f
:101abc000004e000020032006666a8001700370040
:101acc006666a900150037001e4090000004e00077
:101adc00020032006686a800100037006686a90056
:101aec000e0037001e4090000004e000020032009f
:101afc0066a6a8000900370066a6a90007003700f3
:101b0c001e4090000004e0000200320066c6a800ef
:101b1c000200370066c6a900000000000080fa0031
:101b2c00000006000200fa00004f78001e80fb0047
:101b3c00e30f500036003200e30f500007003c006a
:101b4c00e10f500018003200e10f500023003c0060
:101b5c000000e0000800320061003700e50f500083
:101b6c0045003200e50f500036003500e60f5000fe
:101b7c004e0032005a0037003033800000407800ad
:101b8c006140600000c0ea00614060000080fb0022
:101b9c0061006000313380000100a1000100700081
:101bac00303388004e003700303380000000d10005
:101bbc006140600000c0ea00614060000080fb00f2
:101bcc006100600000004000313380000110a10072
:101bdc000100700030338800410037003033800042
:101bec004200de006140600000c0ea00614060001d
:101bfc000080fb00610060004200dd00313380009a
:101c0c000120a1000100700030338800340037003f
:101c1c00303380004300de006140600000c0ea0009
:101c2c00614060000080fb00610060004300dd004b
:101c3c00313380000130a100010070003033880086
:101c4c0027003700303380004400de006140600024
:101c5c0000c0ea00614060000080fb006100600091
:101c6c004400dd00313380000140a1000100700010
:101c7c00303388001a003700303380004500de0016
:101c8c006140600000c0ea00614060000080fb0021
:101c9c00610060004500dd00313380000150a1007f
:101cac0001007000303388000d00370030338000a5
:101cbc004600de006140600000c0ea006140600048
:101ccc000080fb00610060004600dd0031338000c5
:101cdc000160a1000100700030338800000000009a
:101cec000080fa00000006000000fa0001088000e5
:101cfc00f00b2000008160006004200071052000c2
:101d0c0003102000804978008149780082497800ce
:101d1c00a13d800000fc2f0000806000a000b300fb
:101d2c00a03d8800213f8000f00f280080806000db
:101d3c000030200001007000203f88000008800067
:101d4c00000178000260a0006004200071052000f2
:101d5c00031020008049780081497800824978007e
:101d6c00caa6a800c6a6a900c686a8000080fa00cc
:041d7c00000006005d
:020000040000fa
:101d8000b008000008000000820000000d0a5300a7
:101d9000616c750074000000b808000006000000c7
:101da000800000000808000006000000800000001d
:101db000000800000800000082000000b08ab8009f
:101dc0008ac18a00cb8a00000e080000880000004b
:101dd00082000000010000000034080035083400d3
:101de000083408003408340008240800000000000b
:101df00000000000000000000000000000000000e3
:101e000000000000000000000002080001015c006a
:101e1000085d08005c085c00085c08005c084c0079
:101e200008000000000000000000000000000000aa
:101e300000000000000000000000000000000200a0
:101e400008020200840885000884080084088400d1
:101e50000884080074080000000000000000000072
:101e60000000000000000000000000000000000072
:101e7000000000000e083600085e080000000000a8
:101e8000000000000000000000000000c208000088
:101e90000200000080000000960800001a00000008
:101ea00082000000686a6c00747a4c000000010037
:101eb00000020000040008000010000000002000e4
:101ec0002b2d230030000000c40800000200000099
:101ed0008200000004000000be08000004000000b2
:101ee00080000000c6080000020000008200000020
:101ef00001000000c808000002000000800000008f
:041f000000000000dd
:020000040000fa
:101f04000200fa00000f780079ff07009823ef0021
:101f14009a23ef009803a900c11c800090ff2f00b2
:101f240000806000c01c88009863a8009e007800b0
:101f3400011d880099e3a8009b43a8009b83a80087
:101f440061058000f0ff28000080600000c0a00050
:101f5400600588009960a8000080fa00000006006f
:101f64000000fa00d01c80000080fa000000060087
:101f74000000fa0000000000d01c80006100600036
:101f84000000e000fcff3200d01c80006200600012
:101f94000000e000010032009a23a90002000700bb
:101fa4000080fa00000006000000fa00f01c800027
:101fb400004078000080fa00000006000200fa00e9
:101fc400004f78001e80fb00e01c88000080fa00af
:101fd400000006000200fa00004f78000000000034
:101fe400d11c800000202000008060000000e00080
:101ff400fbff3a001e407800f0ff07000080fa0063
:10200400000006000200fa00000f78000400370008
:102014001e007800104078001e0fe800edff070056
:102024001e007800104078000004e000f8ff3a0039
:082034000080fa000000060024
:00000001FF
