:020000040000fa
:080000000001040000000000f3
:020000040000fa
:040008002e020000c4
:020000040000fa
:04000c002e020000c0
:020000040000fa
:040010002e020000bc
:020000040000fa
:040014002e020000b8
:020000040000fa
:040018002e020000b4
:020000040000fa
:04001c002e020000b0
:020000040000fa
:040020002e020000ac
:020000040000fa
:040024002e020000a8
:020000040000fa
:040028002e020000a4
:020000040000fa
:04002c002e020000a0
:020000040000fa
:040030002e0200009c
:020000040000fa
:040034002e02000098
:020000040000fa
:040038002e02000094
:020000040000fa
:04003c002e02000090
:020000040000fa
:040040002e0200008c
:020000040000fa
:040044002e02000088
:020000040000fa
:040048002e02000084
:020000040000fa
:04004c002e02000080
:020000040000fa
:040050002e0200007c
:020000040000fa
:040054002e02000078
:020000040000fa
:040058002e02000074
:020000040000fa
:04005c002e02000070
:020000040000fa
:040060002e0200006c
:020000040000fa
:040064002e02000068
:020000040000fa
:040068002e02000064
:020000040000fa
:04006c002e02000060
:020000040000fa
:040070002e0200005c
:020000040000fa
:040074002e02000058
:020000040000fa
:040078002e02000054
:020000040000fa
:04007c002e02000050
:020000040000fa
:040080002e0200004c
:020000040000fa
:040084002e02000048
:020000040000fa
:040088002e02000044
:020000040000fa
:04008c002e02000040
:020000040000fa
:040090002e0200003c
:020000040000fa
:040094002e02000038
:020000040000fa
:040098002e02000034
:020000040000fa
:04009c002e02000030
:020000040000fa
:0400a0002e0200002c
:020000040000fa
:0400a4002e02000028
:020000040000fa
:0400a8002e02000024
:020000040000fa
:0400ac002e02000020
:020000040000fa
:0400b0002e0200001c
:020000040000fa
:0400b4002e02000018
:020000040000fa
:0400b8002e02000014
:020000040000fa
:0400bc002e02000010
:020000040000fa
:0400c0002e0200000c
:020000040000fa
:0400c4002e02000008
:020000040000fa
:0400c8002e02000004
:020000040000fa
:0400cc002e02000000
:020000040000fa
:0400d0002e020000fc
:020000040000fa
:0400d4002e020000f8
:020000040000fa
:0400d8002e020000f4
:020000040000fa
:0400dc002e020000f0
:020000040000fa
:0400e0002e020000ec
:020000040000fa
:0400e4002e020000e8
:020000040000fa
:0400e8002e020000e4
:020000040000fa
:0400ec002e020000e0
:020000040000fa
:0400f0002e020000dc
:020000040000fa
:0400f4002e020000d8
:020000040000fa
:0400f8002e020000d4
:020000040000fa
:0400fc002e020000d0
:020000040000fa
:040100002e020000cb
:020000040000fa
:040104002e020000c7
:020000040000fa
:040108002e020000c3
:020000040000fa
:04010c002e020000bf
:020000040000fa
:040110002e020000bb
:020000040000fa
:040114002e020000b7
:020000040000fa
:040118002e020000b3
:020000040000fa
:04011c002e020000af
:020000040000fa
:040120002e020000ab
:020000040000fa
:040124002e020000a7
:020000040000fa
:040128002e020000a3
:020000040000fa
:04012c002e0200009f
:020000040000fa
:040130002e0200009b
:020000040000fa
:040134002e02000097
:020000040000fa
:040138002e02000093
:020000040000fa
:04013c002e0200008f
:020000040000fa
:040140002e0200008b
:020000040000fa
:040144002e02000087
:020000040000fa
:040148002e02000083
:020000040000fa
:04014c002e0200007f
:020000040000fa
:040150002e0200007b
:020000040000fa
:040154002e02000077
:020000040000fa
:040158002e02000073
:020000040000fa
:04015c002e0200006f
:020000040000fa
:040160002e0200006b
:020000040000fa
:040164002e02000067
:020000040000fa
:040168002e02000063
:020000040000fa
:04016c002e0200005f
:020000040000fa
:040170000c0200007d
:020000040000fa
:040174002e02000057
:020000040000fa
:040178002e02000053
:020000040000fa
:04017c002e0200004f
:020000040000fa
:040180002e0200004b
:020000040000fa
:040184002e02000047
:020000040000fa
:040188002e02000043
:020000040000fa
:04018c002e0200003f
:020000040000fa
:040190002e0200003b
:020000040000fa
:040194002e02000037
:020000040000fa
:040198002e02000033
:020000040000fa
:04019c002e0200002f
:020000040000fa
:0401a0002e0200002b
:020000040000fa
:0401a4002e02000027
:020000040000fa
:0401a8002e02000023
:020000040000fa
:0401ac002e0200001f
:020000040000fa
:0401b0002e0200001b
:020000040000fa
:0401b4002e02000017
:020000040000fa
:0401b8002e02000013
:020000040000fa
:0401bc002e0200000f
:020000040000fa
:0401c0002e0200000b
:020000040000fa
:0401c4002e02000007
:020000040000fa
:0401c8002e02000003
:020000040000fa
:0401cc002e020000ff
:020000040000fa
:0401d0002e020000fb
:020000040000fa
:0401d4002e020000f7
:020000040000fa
:0401d8002e020000f3
:020000040000fa
:0401dc002e020000ef
:020000040000fa
:0401e0002e020000eb
:020000040000fa
:0401e4002e020000e7
:020000040000fa
:0401e8002e020000e3
:020000040000fa
:0401ec002e020000df
:020000040000fa
:0401f0002e020000db
:020000040000fa
:0401f4002e020000d7
:020000040000fa
:0401f8002e020000d3
:020000040000fa
:0401fc002e020000cf
:020000040000fa
:100200008fa220000eff27000e01880000000000d2
:10021000000020000000e000020032000001200089
:1002200020028800140007008e0007000000e00094
:1002300003003a0080462100010020000200370040
:100240000000200001002000810f7000010032003a
:1002500014000700000020000000e000020032004f
:100260000000020000000000a810020000000000d2
:100270000040da000000fe004440a900a005200074
:100280000000e00003003200002020009001880000
:100290004440a800000006008a1f78008b1f7800e9
:1002a00000000600a1028800800478000000eb0036
:1002b0001f003700e284440054a0b4009905ba003e
:1002c000e284440054a0b4009906ba00e2844400d9
:1002d00054a0b4000006eb00476fde00fd07b2003b
:1002e000ae018800636ce10003003a00eaff0700fa
:1002f0000000eb000e003700606ce10008003a00df
:10030000004deb000a05e800020039003420ec0043
:100310000af0a0008b05e900f9ff3e000400370059
:100320006168e100010032000086eb000b0007006d
:1003300019c7ba001905ba000e04e00003003a001c
:100340000a00e000dbff3a0000000600fe07b200f2
:10035000ae0288008a047800f5ff37000cd0a300b5
:10036000e20f4d001c00390089027800354dba00bb
:100370000a05e800020039003420ec000af0a00071
:100380008b05e9000f003200254dba000a05e80090
:10039000020039003420ec000af0a0008b05e900cf
:1003a000080032000c00e0000600320015cdba0053
:1003b0000a05e800020039003420ec000af0a00031
:1003c0008b05e9008984e80054a0b4000b00e0002c
:1003d000e2ff3a00000006009902ba00055d7800cd
:1003e0008b05e900f7ff3200c82ade00055d7800c2
:1003f0008b05e900f3ff32000c00e000f1ff320052
:1004000019ddba00eeff3700fc1104000000000007
:100410006e020400000000003600f800809fbe005d
:10042000829fbe00849fbe00869fbe000000fa002f
:10043000501e8000004078007f0707009240a9000e
:100440000080fa004f03be004f02be004f01be0005
:100450004f00be003600f900004006000040da0000
:100460000000fe00000005006022b8000602200027
:100470000000d0008180d2000482d2008582d200a8
:100480000000a0000202520083825a0003003100e3
:100490000202420083824a000000a1000603e90034
:1004a000f3ff3a00000006008001780002003700e8
:1004b000b15978000201e9000200e000fcff3a00b7
:1004c0000000060000017800b1417800035978006f
:1004d0000304e000fcff3a0000000600881f7800db
:1004e0000204780008017800efff070008004000d0
:1004f0004f047800000006000000fa00881f780012
:1005000000047800ea8157003fb99700880078001e
:10051000e0262000070007000000e0000200350090
:100520008040eb00017478004f0478000080fa00ee
:10053000000006006200fa00889fbe008a1f780053
:1005400000057800810478000204780083007800b8
:1005500080f92f000f004000b10307009a979f0019
:10056000a9979f000000eb00b09f9f001885fb003b
:100570008a04fb000a05ea004f55de005002200005
:10058000808f54000d003200e10f55000b003a003f
:100590000a017800880078002f9097009f919700bb
:1005a00003000100a0979f000000e0008e003200d1
:1005b0003f9897000000e800b09f9f000a044400a5
:1005c00050022000808f5400040032000900e00037
:1005d000e6ff3a003f989700840037000000eb00e8
:1005e000909f9f00809f9f00f0979f00e0979f0043
:1005f000d0979f00c0979f000700370021a22000de
:10060000010050000000400061a12000610078005e
:10061000df98970001007000d09f9f008804780049
:1006200009047800384578008a00fb0020a22000e9
:10063000840107000000e000f0ff3a00a1c2b3000f
:10064000814f55000e003a00cf8897000180e900e5
:10065000c08f9f0010007800c09f9f000000e00046
:1006600005003d000000ea00c09f9f005f989700d2
:100670000020a000d09f9f000904e8000f00370071
:10068000c09f9f000000eb0005003700f2ff27002d
:10069000820f5000020032006a01b900028040005f
:1006a0000904780088047800b900fb000103b10058
:1006b000e98f5000f5ff3600c09f9f00e0c2b300f5
:1006c000984f1000020032000080eb001900370044
:1006d000a0c2b300d84f100007003a00cf8897009f
:1006e0000180e900c08f9f0010007800a09f9f004c
:1006f0000804e800100037000000eb00a09f9f00f6
:100700008800780005003700f3ff2700830f5000b2
:10071000020032006a02b9000400410001047800be
:10072000880078003101fb000203b100e90f51009d
:10073000f5ff3600a09f9f00984478008900fb00d9
:10074000e0a020003f0107000000e00002003200ae
:100750000804e800010037008044eb00c97f9f00d7
:1007600080c6b30080cf540004003a0098cf140034
:100770000a003a006640500006003700c0c6b300c9
:1007800080cf540005003a0098cf140003003a00cf
:1007900065404000c07f9f000804e8001801fb008e
:1007a000e3fb2f008f81410081f92f008f804000f3
:1007b000a0f92f000f004000100007000000e0002b
:1007c00009003a00e1fb2f008f804000a0f92f00c4
:1007d0000f004000560207000000e0000200350054
:1007e0000804e80061ff37000080eb004f05780047
:1007f0004f04be000080fa0000000600889fbe0083
:100800008a9fbe00e4c6b300844f5100be00320090
:1008100010003c006b425200844f5100180032001f
:1008200005003c0054c2b300844f5100f600320072
:1008300084c5b3000f00370044c6b300844f510095
:100840001400320065424200844f5100f1003a002a
:100850001000370004c7b300844f5100dd003200a0
:100860005600350065424200844f5100530032006b
:1008700063424200844f5100e6003a004f003700c7
:100880001181e90082087800f000900012417800a0
:10089000de00370020629000c5c6b300854f5200cd
:1008a00007003a00910278006482520084087800c0
:1008b0001402be004fabde00860378001400370040
:1008c00015c7b300854f520003003a0011047800a9
:1008d0006802540005003700a5c6b300854f5200da
:1008e00006003a0091047800688254008408780079
:1008f0005403be004402be00050037001182e90027
:100900008408780014027800cfa2de00612bb900c1
:100910000498be000690be00a060900088c6b30098
:1009200088cf50000d00320028c6b30088cf500099
:1009300004003a000402fb00cfa2de00612bb900e4
:100940000800370048c7b30088cf500003003200ca
:100950006644440088cf500004003a00cfa2de0075
:10096000612bb9000498be000690be003002be00a4
:100970002003be00f0009000e00f5200e08f5a000c
:10098000e00f5b00e08f5b0002003d00d4c2b300cb
:1009900008003700001290000418a3000200320083
:1009a000b4c2b300030037000408a30051003200b2
:1009b00004c2b30084f178004c003700206290003c
:1009c000c5c6b300854f520008003a0011057800f3
:1009d00064025500840878001404be006055b80015
:1009e0000802be000a03be001400370015c7b3009a
:1009f000854f520003003a00910478006882540049
:100a000005003700a5c6b300854f520006003a0026
:100a10001105780068025500840878005403be0070
:100a20004402be00050037001182e9008408780006
:100a3000140278008002eb006033b8000498be0016
:100a40000690be00a060900088c6b30088cf50001a
:100a50000d00320028c6b30088cf500004003a00d1
:100a60000482fb008002eb006033b800080037000e
:100a700048c7b30088cf50000300320066444400ea
:100a800088cf500004003a008002eb006033b800c9
:100a90000498be000690be00801090000138a300ac
:100aa000140032003002be002003be00e00f5200ee
:100ab000e08f5a00e00f5b00e08f5b000d0032001a
:100ac00081c7b300814f51000300320081c5b300dc
:100ad000814f510007003a00f000900004c3b300ba
:100ae00084f178008100e80082f178008100e8005c
:100af00071009800f000900081814100630098002f
:100b0000824078003e003700a0619000c4c6b30068
:100b10001181e90084cf5100220032000a003c001c
:100b20006442520084cf51002500320004c2e80024
:100b300084cf5100130032006842520084cf51002c
:100b40001e003a000a00370044c7b30084cf5100aa
:100b50001b0032006642420084cf51001800320070
:100b60006942520084cf510014003a00050037005a
:100b70008208780092007800405890008048780001
:100b80002c0037008208780092007800600a9000fc
:100b9000cfa2de00612bb9008498be008690be0013
:100ba00024003700820878009200780060099000e5
:100bb000cf91de008288be001e0037001181e9005f
:100bc0008208780092007800600890008008780021
:100bd000180037001181e9008208780012027800bd
:100be000cfa2de00612bb9000498be000690be00c3
:100bf000f0009000818141006300980081c7b3003c
:100c00001c0007000b003700f000900082f1780014
:100c100006003700f0009000818141000204e000ee
:100c200001003a0052c2b300824978008100e80016
:100c3000710098000000eb004f05be004f04be009d
:100c400000000600020037000304e0000600320046
:100c50000001780002007800b041780081cf510097
:100c6000f9ff3a00010037000001eb0002007800b4
:100c700000000600fc874700889fbe008a9fbe00d8
:100c80008c9fbe008e1f78000006780080c5b300e0
:100c900080cf50000a0032007740400080cf5000e3
:100ca0000a0032006940400080cf50000b00320043
:100cb000d09f200080bf9f00ae0020000a003700b8
:100cc000c29e200082bf9f0006003700d39f2000f5
:100cd00083bf9f008e00200003003700d49f2000b8
:100ce00084bf9f000e0120003c02be002c03be000a
:100cf0000605be000404be0040c6b30080cf50000d
:100d0000030032006540400080cf50000b003a00e5
:100d1000e00f5200e08f5a00e00f5b00e08f5b00b5
:100d200006003d006000b8006011b80004045000e7
:100d3000858458000605590087855900e80f57003b
:100d40000400320040002000f00f570038003a0045
:100d50000100370030002000e00f5400e08f5c00fd
:100d6000e00f5d00e08f5d0004003a00dc089000b9
:100d70008d0120000100e000060032008e00e90035
:100d8000888060008fba9700e5c07800f1ef9f007f
:100d90007d012000800078008100e900050033001b
:100da0008b05d1000a85d3008984d3000884d30041
:100db000f9ff3700089ebe000a96be0012003700f9
:100dc0008d06e9008e00e900848060000fb997006d
:100dd000e2c1780082fd2f000f01410003f17e0087
:100de000800078008100e900050033008783d1008e
:100df0000683d3008582d3000482d300f9ff370035
:100e0000049ebe000696be003c02be002c03be003f
:100e1000e00f5200e08f5a00e00f5b00e08f5b00b4
:100e20008b0034000d00e000e5ff3c008800370037
:100e30002c60900081c6b300814f50000b0032003f
:100e400006003c000004e00008003200e6c050004c
:100e5000814f50004e003a0004003700c1c6b30075
:100e6000814f50004a003a00210037000800e0009e
:100e700004003a005c0890008d0120000000e000b2
:100e800006003200110009000e84d8000fb9970047
:100e9000e2c07800f1ef9f007d0120001100090001
:100ea0000e84d8000a003700110009000e04d80093
:100eb0008d06e9000e81b900020454008fb8970036
:100ec00061417c0081fd2f008f80400082f07e0018
:100ed000000478000800e000020032000d00e0008d
:100ee000f1ff3c00cfc4de00614db90025003700a2
:100ef000e00f5400e08f5c0004003a005c089000b2
:100f00008d0120000000e000070032006171b9008f
:100f10000800be00530107008fb99700e341780035
:100f2000f3ef9f007d0120006171b9000800be0051
:100f30004dfd07000b0037006171b9000800be00cd
:100f4000390107008d06e90000f1b90002045400e0
:100f50000fba9700e4427c0084fd2f000f0242008c
:100f600005f27e000004be00e00f5000e08f580044
:100f7000020032000d00e000efff3c004fcdde002c
:100f80008a057800089ebe000a96be003000370031
:100f9000e00f5400e08f5c00e00f5d00e08f5d002b
:100fa00004003a005c0890008d0120000000e00081
:100fb000090032006172b900612bb9000800be005f
:100fc0000a01be00ca0107000fba97006442780008
:100fd000f4ef9f007d0120006172b900612bb90020
:100fe0000800be000a01be00ba0107000d0037006c
:100ff0006172b900612bb9000800be000a01be0091
:10100000bf0107008d06e90000f2b9000404540096
:101010008fba970065427c0085fd2f008f824200c9
:1010200084f27e00009ebe000296be003c04be001c
:101030002c05be00e00f5400e08f5c00e00f5d0067
:10104000e08f5d00020034000d00e000e8ff3c008e
:10105000e80f570010003a000c1090000038a30071
:101060000d003200f78f560006003e0085fd2f0070
:101070008f824200e5c07e0000c3b30080cf5000e5
:10108000050032008d06e90002c3b30081fd2f0088
:101090008f80400082f07e0078811600120e98004a
:1010a0006c00900083fd2f008f8141008d804100f6
:1010b000fdfc07001c089000dc089000810f500028
:1010c00006003d0000805000000e98000c109000bb
:1010d0000040a100001698000f0037000100e0005a
:1010e0000d003d008c109000f4806000f08f5000e7
:1010f00009003a007c099000fc009000810051003a
:101100000c09900082805000008050004240a900ed
:1011100001003400000e98004f0778004f06be0013
:101120004f05be004f04be00cf01b1000000060015
:101130000400fa00889fbe008a9fbe008c1f7800c2
:101140000004780001067800f80d90007800900007
:10115000808555000808900080855500180890008b
:10116000808555002808900080855500380890003b
:1011700080855500480890008085550000022200b7
:1011800090bf9f0000032300a0bf9f0008109000a5
:101190000028a30015003a000b00e0001300340003
:1011a0000b0578008a047800e20f55000100360034
:1011b00029002000c801900009017800ee80570046
:1011c0005800900003000100500498000000e00067
:1011d0008c0032006808900009004000600c980004
:1011e000090555004240a900eeff3c00780190003f
:1011f0000200e0000c003400c80190008c00780070
:101200005800900003000100500498008080eb001b
:101210000000e0007c003200e808900078009000b8
:1012200000804000600c9800880c90000900e000ed
:101230001100340009057800e28f540001003600e7
:101240002a002000c80190000a017800ec805700b5
:101250005800900003000100500498000000e000d6
:1012600068003200680890000a004000600c980096
:101270008a845400edff3700180990000200e00056
:101280000c003400c8019000e80090005800900065
:1012900003000100500498008080eb000000e00093
:1012a00059003200e80890001808900000804000c3
:1012b000600c9800a80c90000900e00011003400b8
:1012c00009057800e28f5400010036002a00200052
:1012d000c80190000a017800ec8057005800900087
:1012e00003000100500498000000e00045003200b7
:1012f000680890000a004000600c98008a8454003e
:10130000edff3700380990000200e0000e003400c5
:10131000e80090001808900080804000c80190000c
:101320005800900003000100500498008080eb00fa
:101330000000e00034003200e80890003808900017
:1013400000804000600c9800c80c90000900e0008c
:101350001100340009057800e28f540001003600c6
:101360002a002000c80190000a017800ec80570094
:101370005800900003000100500498000000e000b5
:1013800020003200680890000a004000600c9800bd
:101390008a845400edff3700081090008000eb00b5
:1013a0000028a300180032000b00e00016003400f3
:1013b0008b04780009057800e28f540001003600a4
:1013c0002a002000c80190000a017800ee80570032
:1013d0005800900003000100500498000000e00055
:1013e00008003200680890000a004000600c980075
:1013f0008a8454004240a900eeff3c008000eb00cc
:10140000010037008080eb00010078004f06780073
:101410004f05be004f04be000080fa000000060029
:101420000108780000000600839f68000100e000ca
:1014300002003d0060001000e08018000300e000a2
:1014400002003d0060011100e081190006fc070068
:101450004f00e00002003b0060001000e080180038
:101460000000060000fc07000400be0000000600ab
:10147000889fbe008a9fbe0030044200b0844a00ac
:1014800030054b0090854b006000b1000898be000d
:101490000a90be000440e10005c8e10006d0e1006a
:1014a00007d8e10002003100680040001008e800a1
:1014b0004f05be004f04be0000000600889fbe001e
:1014c0008a9fbe003004be002005be0004185400f0
:1014d00005985c0006185d0007985d00110020006b
:1014e0000440e10005c8e10006d0e10007d8e100b2
:1014f000010039008000eb00108810004f05be008d
:101500004f04be00000006001200fa00889fbe00d3
:101510008a9fbe008c9fbe00e0b79f00f1b79f007e
:1015200082bf9f0093bf9f000605be000404be005b
:101530000000eb00d0b79f00c0b79f00b0b79f007e
:10154000a0b79f0090b79f00000678005fb197009a
:10155000cfb09700820141003fb097000200e00049
:1015600004003d00370007007e805700c0ff0700e1
:1015700003003700330007007e805700cfff0700cd
:10158000dfb697000d00e0000c0035006fb2970049
:10159000ffb297000fbb97009fbb97001000200081
:1015a000010020006011b800000272008182720008
:1015b00002037300838373001b0007000c06e8001e
:1015c00001042000810f5600e0ff3a000d00e0000a
:1015d00004003d000802be000a03be007e805700e2
:1015e000a3ff07005fa897000000e00005003a0095
:1015f0001fb29700afb297003fb39700cfb39700e9
:10160000090007006fb09700ffb097000fb997006f
:101610009fb997004f06be004f05be004f04be00a5
:101620000080fa000000060001000700000006002c
:10163000a4b79f00b5b79f00c6b79f00d7b79f005c
:10164000000006004f09de0082817100b3b79f00e1
:101650004f01de008180400082807000a1b79f00b2
:101660008fb097004f09de000000400002007000bc
:1016700090b79f007fa897004f01de008180400057
:101680008280700081b79f000d0007004f3ade0096
:101690000000400004007000f0af9f000800070049
:1016a0000402420085824a0006034b0087834b00f8
:1016b000dfff07000802be000a03be0000000600ac
:1016c0002fb29700bfb297004fb39700dfb39700d8
:1016d00000000600881f780018002000881f78008e
:1016e00089ff07008f87e9004f047800000006009b
:1016f000801feb0084ff07008f87e90000000600d1
:10170000889fbe008a9fbe00e00f5000e08f580007
:10171000e00f5900e08f59000c003d006044b80014
:101720006055b8000000540081805c0002015d003b
:1017300083815d00180020001500070008003d00af
:10174000180007000004eb00050037000004eb0060
:101750000f00070002003d001200070018002000e3
:10176000dcff07000800e000060032006022b8003d
:101770006033b8000000520081805a0002015b0013
:1017800083815b004f05be004f04be0000000600d1
:10179000e00f5200e08f5a00e00f5b00e08f5b002b
:1017a000000006006044b8006055b8000402540010
:1017b00085825c0006035d0087835d0000000600f3
:1017c000889fbe008a9fbe008c1f7800e00f5000eb
:1017d000e08f5800e00f5900e08f59000d003d00e8
:1017e0006044b8006055b8000000540081805c007f
:1017f00002015d0083815d001c0020000820e100e3
:1018000009a8e1000ab0e1000bb8e1000d003d00bd
:10181000080037000006eb00e00f5200e08f5a008e
:10182000e00f5b00e08f5b0006003d006044b80005
:101830006055b8000402540085825c0006035d0018
:1018400087835d00aaff07000c00e000060032005d
:101850006022b8006033b8000000520081805a0056
:1018600002015b0083815b004f0678004f05be00dc
:081870004f04be000000060059
:020000040000fa
:101878002d540000657300007420000041440000ee
:10188800433100003262000069740000732d0000cb
:10189800000d00000a2d00002d2d0000205400002e
:1018a800657300007420000041440000432e0000ce
:1018b800313200006269000074730000202d0000be
:1018c8002d2d00000d0a0000005000006f7400006c
:1018d800656e000074690000656c00003a25000020
:1018e8003564000000540000656e00007369000054
:1018f8006f6e0000203a00002025000032640000ce
:101908002e2500003164000020560000005400001d
:10191800656d0000702000003a200000256400007a
:0419280000000000bb
:020000040000fa
:10192c000200fa007e86a8007ea6a8004627ef00db
:10193c0047e7a8004747a800313a8000f0cf2f00b6
:10194c0000806000303a8800313a8000f0f02f00bf
:10195c0000806000303a88004827ef004967a800f3
:10196c004947a9004807a9004a27ef00513a8000cf
:10197c00f00f2e00008060000090a000503a88000c
:10198c004a67ef005227ef005427ef004c27ef0077
:10199c00613a8000f0ff210000806000603a88000e
:1019ac00613a8000f00f2e0000806000603a8800e1
:1019bc00613a8000f0f12f0000806000603a8800ee
:1019cc00613a800000fe2f0000806000603a8800c1
:1019dc00f422ef005627ef005827ef004e27ef00b8
:1019ec005027ef005a27ef005c27ef0089a0a900d1
:1019fc0099a0a9000040eb00104798001400370094
:101a0c000040eb00004f78000b0037001e409000a8
:101a1c008080fb001e80fb00c308dd0000804000be
:101a2c008000400080802000008040008000eb009f
:101a3c00010878001e4fe8001e407800e74f500068
:101a4c00f2ff36001e4090000040e800104798005e
:101a5c001e409000f74f5000e9ff36000080fa005e
:101a6c00000006000200fa00004f78001e80fb0008
:101a7c00603a88004627a800b90007004627a9004d
:101a8c0000000000303a8000610060000000e000bf
:101a9c00fcff32001e4078003e0007000080fa0078
:101aac00000006000600fa00881f780040479800e6
:101abc0080002000000f7800120037004e4090008c
:101acc000081fb004e4090008080fb001e00e9006e
:101adc00c308dd00008040008000400080802000b2
:101aec0000804000900078004310dd001e00400094
:101afc0000014000808020000000410001087800b7
:101b0c001e0fe9001e0078000000e000ebff3a0019
:101b1c004e4090000084fb004e409000d1ff070027
:101b2c004441dd0081802000810041008008780064
:101b3c000000eb00100798000000eb00000f78008d
:101b4c000c0037004e4090000080fb004300dd008d
:101b5c001e0040008000400080802000008040007b
:101b6c00100078009e009000008040001007980044
:101b7c001e0fe8001e007800e70f5000f1ff360042
:101b8c001e0090004300de004f0478000080fa0035
:101b9c00000006000400fa00204798000000eb004b
:101bac00000f78002e4090000080fb00cf80de00fc
:101bbc007201200003002000820f5000838f580018
:101bcc0061003e000060010017003700190037006b
:101bdc001b0037001d0037001f00370021003700a5
:101bec002300370025003700270037002900370075
:101bfc002b0037002d0037002f0037003100370045
:101c0c003300370035003700370037003900370014
:101c1c003b0037003d0037003f00370041003700e4
:101c2c00430037004500370091388000010f7800e1
:101c3c0045003700a1388000010f780042003700c2
:101c4c00b1388000010f78003f003700c1388000a8
:101c5c00010f78003c003700d1388000010f78006c
:101c6c0039003700e1388000010f7800360037006a
:101c7c00f1388000010f7800330037000139800003
:101c8c00010f78003000370011398000010f780007
:101c9c002d00370021398000010f78002a00370011
:101cac0031398000010f780027003700413980005e
:101cbc00010f78002400370051398000010f7800a3
:101ccc002100370061398000010f78001e003700b9
:101cdc0071398000010f78001b00370081398000ba
:101cec00010f78001800370091398000010f78003f
:101cfc0015003700a1398000010f78001200370061
:101d0c00b1398000010f78000f003700c139800015
:101d1c00010f78000c003700d1398000010f7800da
:101d2c0009003700e1398000010f78000600370008
:101d3c00f1398000010f780003003700013a800070
:101d4c00010f7800000000001e0078000080fa00ef
:101d5c00000006000000fa000080fa0000000600f7
:101d6c000200fa000000eb00000f780001003700c1
:101d7c001e0fe800f07022009e007800808f50004b
:101d8c00fbff36000080fa00000006000000fa009d
:101d9c006626ef006206a9006b46a9006226a90020
:101dac006b26a9006246a9006266a9006286a9009a
:101dbc0062a6a9006ac6a90062c6a9006ae6a900c3
:101dcc007686a80076a6a800a226ef00a6c6a900d3
:101ddc009ec6a800a6e6a9009ee6a8009fa6a8009d
:101dec0062e6a800b626ef00b226ef00a286a90094
:101dfc009e86a900a2a6a9009ea6a9007be6a90022
:101e0c0077e6a9000080fa00000006000200fa0044
:101e1c00004f7800114798001e80fb00e30f500024
:101e2c002d003200e30f500007003c00e10f500082
:101e3c0015003200e10f50001d003c000000e000d6
:101e4c00080032004c003700e50f5000360032001d
:101e5c00e50f50002a003500e60f50003c00320020
:101e6c00450037001e409000614060000080fb0080
:101e7c0061006000313380000100a100010070009e
:101e8c00303388003c0037001e40900061406000f9
:101e9c000080fb00610060000000400031338000d6
:101eac000110a100010070003033880032003700af
:101ebc001e409000614060000080fb0061006000eb
:101ecc004200dd00313380000120a10001007000d0
:101edc0030338800280037001e40900061406000bd
:101eec000080fb00610060004300dd0031338000a6
:101efc000130a10001007000303388001e00370053
:101f0c001e409000614060000080fb00610060009a
:101f1c004400dd00313380000140a100010070005d
:101f2c0030338800140037001e4090006140600080
:101f3c000080fb00610060004500dd003133800053
:101f4c000150a10001007000303388000a003700f6
:101f5c001e409000614060000080fb00610060004a
:101f6c004600dd00313380000160a10001007000eb
:101f7c0030338800000000000080fa0000000600ea
:101f8c000200fa00004f78001e80fb00e30f5000a7
:101f9c0036003200e30f500007003c00e10f500008
:101fac0018003200e10f500023003c000000e0005c
:101fbc000800320061003700e50f50004500320088
:101fcc00e50f500036003500e60f50004e00320091
:101fdc005a00370030338000610060000000e000e0
:101fec00040032008040eb000040eb0087ff07004c
:101ffc005200370011c0b3000040eb0083ff070014
:10200c004e003700303380000000d100614060008a
:10201c000004a200614060000080fb0061006000d1
:10202c0000004000313380000110a100010070005d
:10203c003033880041003700303380004200de002e
:10204c006140600000c0ea00614060000080fb005d
:10205c00610060004200dd00313380000120a100ee
:10206c0001007000303388003400370030338000ba
:10207c004300de006140600000c0ea006140600087
:10208c000080fb00610060004300dd003133800004
:10209c000130a100010070003033880027003700a8
:1020ac00303380004400de006140600000c0ea0074
:1020bc00614060000080fb00610060004400dd00b6
:1020cc00313380000140a1000100700030338800e2
:1020dc001a003700303380004500de00614060009c
:1020ec0000c0ea00614060000080fb0061006000fd
:1020fc004500dd00313380000150a100010070006b
:10210c00303388000d003700303380004600de008d
:10211c006140600000c0ea00614060000080fb008c
:10212c00610060004600dd00313380000160a100d9
:10213c000100700030338800000000000080fa00bd
:10214c00000006000000fa0002000700160007005d
:10215c00feff37000000fa000cff070030032000e0
:10216c0062010700ad000700edfd07000028ef003d
:10217c0012012000c1c32800a09c2000c7f8070052
:10218c0010c0b30006e8b700c2012000d1c428007b
:10219c0080982000c1f8070080982000bc0107003f
:1021ac000080fa00000006000000fa00e3000700bf
:1021bc000135800000002200008060000000e0007b
:1021cc0004003a0011c0b3000040eb000fff070001
:1021dc00030037008040eb000040eb000bff0700d2
:1021ec00004080000000e8000040880000408000b3
:1021fc00e20f5000030036000028ef0010c0b300bf
:10220c005fff070050c0b30016fe070010408800a7
:10221c0040c0b30013fe070020408800c01f2100ff
:10222c00000001000080fa00000006000200fa0025
:10223c00004f78001e4078007e0107000080fa00f5
:10224c00000006000000fa000080fa000000060002
:10225c001400fa000000eb00000f780005003700b6
:10226c00630047001e00400001c2b3000148780023
:10227c001e0fe8001e007800ef0f5000f8ff34002e
:10228c00104080004800de00204798000000eb0062
:10229c00000f780005003700630047001e00400067
:1022ac0080c0eb00014878001e0fe8002e40900023
:1022bc000080fb000000e8009e0f5000f6ff3c0081
:1022cc0010408000801f780090c62800801f780086
:1022dc00a09c200085f80700e487570010c0b300cd
:1022ec0006e8b7006300470080007800b09d20002e
:1022fc0071f8070010c0b30007e8b7000080fa00bf
:10230c00000006000800fa0010408000c200de0049
:10231c00102124000008b8004308de008000eb0008
:10232c00008fbe001e00be00a20020000300200093
:10233c004af80700200798001e0178002e00900034
:10234c006a00b900000078000000510030079800c6
:10235c001e01be009000200001002000800f5100e3
:10236c00818f590004003e0011c0b30040c0b3007f
:10237c00a6fe0700100037001e01be004001200021
:10238c0001002000800f5100818f5900040036009d
:10239c0011c0b30030c0b3009cfe0700060037002c
:1023ac008040eb0040c0b30098fe07008040eb007b
:1023bc0030c0b30095fe0700be009000811f78006e
:1023cc00ae009000811f780070c72800801f780035
:1023dc00a09c200045f80700e687570010c0b3000a
:1023ec0006e8b7000080fa00000006000000fa00c2
:1023fc0020408000801f7800b0c82800801f780023
:10240c00a09c200039f80700e487570010c0b300e7
:10241c0006e8b7000080fa00000006000000fa0091
:10242c00a286a900b626ef00a2a6a9007be6a90009
:10243c0021000700409c20006a00070030002000ab
:10244c00b035880080022000660007004a000700b3
:10245c0050002000630007004700070050002000d8
:10246c006000070044000700200020005d0007000a
:10247c0080c3b30047000700a00f200059000700dd
:10248c00f0c0b30043000700a00f20005500070068
:10249c0060c0b3003f000700a00f200051000700f0
:1024ac0010c0b3003b000700409c20004d0007000b
:1024bc000080fa00000006000200fa000668ef0037
:1024cc000040eb00004f7800050037001e80fb0039
:1024dc00a19c200002c2b300827078001e4fe8005d
:1024ec001e407800ef4f5000f8ff3600a09d2000f2
:1024fc008040eb00014878000768ef000040eb00db
:10250c00004f7800050037001e80fb00b19d2000b5
:10251c0002c2b300827078001e4fe8001e407800a3
:10252c00ef4f5000f8ff3600b09e20008040eb00cb
:10253c00014878000080fa00000006000000fa0054
:10254c0006c8bf00e14f500003003a00a09c2000d9
:10255c00430007000668ef0007c8bf00e14f5000ba
:10256c0003003a00b09d20004f0007000768ef0001
:10257c000080fa00000006000000fa00a286a80005
:10258c00a000200017000700a286a9000080fa0016
:10259c00000006000200fa00004f78001e80fb00cd
:1025ac00b03588007be6a900f3ff0700a0002000ef
:1025bc000c0007000080fa00000006000200fa0080
:1025cc00004f78001e80fb00b03588007be6a80029
:1025dc00e9ff0700a0002000020007000080fa00bd
:1025ec00000006000600fa0020079800ae009000dc
:1025fc00010f78000b0037000000eb00100798006b
:10260c00030037001e0090000000e800100798003f
:10261c009e009000e0062000808f5000f9ff3600ed
:10262c001e0fe9001e007800e10f5000f2ff3e0083
:10263c000080fa00000006000000fa0000c8b30099
:10264c00d4ff07000080fa00000006000000fa002a
:10265c0000ccb300cfff07000080fa00000006009a
:10266c000400fa0010079800f3ff07000040eb008d
:10267c00004f7800070037001e00900010407800d3
:10268c009e0090008100e80011079800cbff070026
:10269c001e4fe8001e407800ef4f5000f6ff36004a
:1026ac000080fa00000006000400fa0010079800f1
:1026bc00e6ff07000040eb00004f780006003700f3
:1026cc001e80fb009e0090000080400010407800af
:1026dc00baff07001e4fe8001e407800ef4f500075
:1026ec00f7ff36000080fa00000006000200fa0036
:1026fc00000f78003c000700ae23ef00b023ef0082
:10270c00caa6a800c6a6a900c686a8000108800013
:10271c00f00b200000816000600420007105200097
:10272c0003102000804978008149780082497800a4
:10273c00913d8000f00f2c008080600000a02000f4
:10274c0001007000903d8800213f8000f00f2800b0
:10275c00808060000030210001007000203f880064
:10276c0000088000000178000260a00060042000d6
:10277c007105200003102000804978008149780001
:10278c0082497800c5e3a800c463a800c403a9006b
:10279c00211e800090ff2f0000806000201e88000a
:1027ac00c463a8009e007800611e8800c5e3a800e1
:1027bc00c743a800c783a8009240a9009220a90093
:1027cc009260a90081068000f08f2f0000806000cd
:1027dc000080a00080068800a240a800ce23ef0055
:1027ec000080fa00000006000200fa000000eb0076
:1027fc00000f780005003700809820001e00400074
:10280c008040eb00014878001e0fe800f003200028
:10281c009e007800808f5000f7ff360080982000d3
:10282c001e0040008040eb00014878000080fa0058
:10283c00000006000400fa00204798000000000089
:10284c00311e800000102000008060000000e000bd
:10285c00fbff32002e4090000000fb00000f7800c0
:10286c00f00720001e0f60009e007800411e8800bb
:10287c000080fa00000006000200fa00004f780009
:10288c001e407800ebff07000080fa0000000600f5
:10289c000200fa00000f7800040037001e007800d8
:1028ac00104078001e0fe800e2ff07001e007800c1
:1028bc00104078000004e000f8ff3a000080fa00b5
:0428cc000000060002
:020000040000fa
:1028d000080800008001000080000000ca09000014
:1028e0002200000080000000060800000200000036
:1028f00080000000000800000600000080000000ca
:102900008809000042000000800000000e0a00005c
:102910001a00000082000000686a6c00747a4c00a3
:102920000000010000020000040008000010000088
:10293000000020002b2d230030000000ec090000d7
:1029400022000000820000003031320033343500b4
:1029500036373800394142004344450046003000d4
:102960003132330034353600373839006162630064
:0c2970006465660000000000000000002c
:00000001FF
