:020000040000fa
:080000000001040000000000f3
:020000040000fa
:040008005c02000096
:020000040000fa
:04000c005c02000092
:020000040000fa
:040010005c0200008e
:020000040000fa
:040014005c0200008a
:020000040000fa
:040018005c02000086
:020000040000fa
:04001c005c02000082
:020000040000fa
:040020005c0200007e
:020000040000fa
:040024005c0200007a
:020000040000fa
:040028005c02000076
:020000040000fa
:04002c005c02000072
:020000040000fa
:040030005c0200006e
:020000040000fa
:040034003e02000088
:020000040000fa
:040038005c02000066
:020000040000fa
:04003c005c02000062
:020000040000fa
:040040005c0200005e
:020000040000fa
:040044005c0200005a
:020000040000fa
:040048005c02000056
:020000040000fa
:04004c005c02000052
:020000040000fa
:040050005c0200004e
:020000040000fa
:040054005c0200004a
:020000040000fa
:040058005c02000046
:020000040000fa
:04005c005c02000042
:020000040000fa
:040060005c0200003e
:020000040000fa
:040064005c0200003a
:020000040000fa
:040068005c02000036
:020000040000fa
:04006c005c02000032
:020000040000fa
:040070005c0200002e
:020000040000fa
:040074005c0200002a
:020000040000fa
:040078005c02000026
:020000040000fa
:04007c005c02000022
:020000040000fa
:040080005c0200001e
:020000040000fa
:040084005c0200001a
:020000040000fa
:040088005c02000016
:020000040000fa
:04008c005c02000012
:020000040000fa
:040090005c0200000e
:020000040000fa
:040094005c0200000a
:020000040000fa
:040098005c02000006
:020000040000fa
:04009c005c02000002
:020000040000fa
:0400a0001c0200003e
:020000040000fa
:0400a4005c020000fa
:020000040000fa
:0400a8005c020000f6
:020000040000fa
:0400ac005c020000f2
:020000040000fa
:0400b0005c020000ee
:020000040000fa
:0400b4005c020000ea
:020000040000fa
:0400b8005c020000e6
:020000040000fa
:0400bc005c020000e2
:020000040000fa
:0400c0005c020000de
:020000040000fa
:0400c4005c020000da
:020000040000fa
:0400c8005c020000d6
:020000040000fa
:0400cc005c020000d2
:020000040000fa
:0400d0005c020000ce
:020000040000fa
:0400d4005c020000ca
:020000040000fa
:0400d8005c020000c6
:020000040000fa
:0400dc005c020000c2
:020000040000fa
:0400e0005c020000be
:020000040000fa
:0400e4005c020000ba
:020000040000fa
:0400e8005c020000b6
:020000040000fa
:0400ec005c020000b2
:020000040000fa
:0400f0005c020000ae
:020000040000fa
:0400f4005c020000aa
:020000040000fa
:0400f8005c020000a6
:020000040000fa
:0400fc005c020000a2
:020000040000fa
:040100005c0200009d
:020000040000fa
:040104005c02000099
:020000040000fa
:040108005c02000095
:020000040000fa
:04010c005c02000091
:020000040000fa
:040110005c0200008d
:020000040000fa
:040114005c02000089
:020000040000fa
:040118005c02000085
:020000040000fa
:04011c005c02000081
:020000040000fa
:040120005c0200007d
:020000040000fa
:040124005c02000079
:020000040000fa
:040128005c02000075
:020000040000fa
:04012c005c02000071
:020000040000fa
:040130005c0200006d
:020000040000fa
:040134005c02000069
:020000040000fa
:040138005c02000065
:020000040000fa
:04013c005c02000061
:020000040000fa
:040140005c0200005d
:020000040000fa
:040144005c02000059
:020000040000fa
:040148005c02000055
:020000040000fa
:04014c005c02000051
:020000040000fa
:040150005c0200004d
:020000040000fa
:040154005c02000049
:020000040000fa
:040158005c02000045
:020000040000fa
:04015c005c02000041
:020000040000fa
:040160005c0200003d
:020000040000fa
:040164005c02000039
:020000040000fa
:040168005c02000035
:020000040000fa
:04016c005c02000031
:020000040000fa
:040170005c0200002d
:020000040000fa
:040174005c02000029
:020000040000fa
:040178005c02000025
:020000040000fa
:04017c005c02000021
:020000040000fa
:040180005c0200001d
:020000040000fa
:040184005c02000019
:020000040000fa
:040188005c02000015
:020000040000fa
:04018c005c02000011
:020000040000fa
:040190005c0200000d
:020000040000fa
:040194005c02000009
:020000040000fa
:040198005c02000005
:020000040000fa
:04019c005c02000001
:020000040000fa
:0401a0005c020000fd
:020000040000fa
:0401a4005c020000f9
:020000040000fa
:0401a8005c020000f5
:020000040000fa
:0401ac005c020000f1
:020000040000fa
:0401b0005c020000ed
:020000040000fa
:0401b4005c020000e9
:020000040000fa
:0401b8005c020000e5
:020000040000fa
:0401bc005c020000e1
:020000040000fa
:0401c0005c020000dd
:020000040000fa
:0401c4005c020000d9
:020000040000fa
:0401c8005c020000d5
:020000040000fa
:0401cc005c020000d1
:020000040000fa
:0401d0005c020000cd
:020000040000fa
:0401d4005c020000c9
:020000040000fa
:0401d8005c020000c5
:020000040000fa
:0401dc005c020000c1
:020000040000fa
:0401e0005c020000bd
:020000040000fa
:0401e4005c020000b9
:020000040000fa
:0401e8005c020000b5
:020000040000fa
:0401ec005c020000b1
:020000040000fa
:0401f0005c020000ad
:020000040000fa
:0401f4005c020000a9
:020000040000fa
:0401f8005c020000a5
:020000040000fa
:0401fc005c020000a1
:020000040000fa
:100200000f9320000eff27000e0188000000000061
:10021000000020000000e000020032000001200089
:1002200020028800140007001a0107000000e00007
:1002300003003a00a0d12100010020000200370095
:100240000000200001002000810f7000010032003a
:1002500014000700000020000000e000020032004f
:1002600000000200000000008a15020000000000eb
:100270000040da000000fe004440a900800b20008e
:100280000000e00003003200002020009001880000
:100290004440a800000006008a1f78008b1f7800e9
:1002a00000000600a1028800800478000000eb0036
:1002b0001f003700e284440054a0b4009905ba003e
:1002c000e284440054a0b4009906ba00e2844400d9
:1002d00054a0b4000006eb00476fde00fd07b2003b
:1002e000ae018800636ce10003003a00eaff0700fa
:1002f0000000eb000e003700606ce10008003a00df
:10030000004deb000a05e800020039003420ec0043
:100310000af0a0008b05e900f9ff3e000400370059
:100320006168e100010032000086eb000b0007006d
:1003300019c7ba001905ba000e04e00003003a001c
:100340000a00e000dbff3a0000000600fe07b200f2
:10035000ae0288008a047800f5ff37000cd0a300b5
:10036000e20f4d001c00390089027800354dba00bb
:100370000a05e800020039003420ec000af0a00071
:100380008b05e9000f003200254dba000a05e80090
:10039000020039003420ec000af0a0008b05e900cf
:1003a000080032000c00e0000600320015cdba0053
:1003b0000a05e800020039003420ec000af0a00031
:1003c0008b05e9008984e80054a0b4000b00e0002c
:1003d000e2ff3a00000006009902ba00055d7800cd
:1003e0008b05e900f7ff3200c82ade00055d7800c2
:1003f0008b05e900f3ff32000c00e000f1ff320052
:1004000019ddba00eeff3700be0304000000000053
:10041000d8030400000000000604040000000000ef
:1004200038080400000000008010040000000000f4
:1004300000000400000000003600f800809fbe00ad
:10044000829fbe00849fbe00869fbe000000fa000f
:10045000a01d800000407800bc0a07008bc0a900e6
:100460000080fa004f03be004f02be004f01be00e5
:100470004f00be003600f900004006003600f800cc
:10048000809fbe00829fbe00849fbe00869fbe00ec
:100490000000fa00b50a07008860a9000080fa0091
:1004a0004f03be004f02be004f01be004f00be0012
:1004b0003600f900004006000040da000000fe00af
:1004c0000a00fa0011002000b1bf9f00c0bf9f00ca
:1004d0006a805700bf0707004fb897000080fa00f6
:1004e000000006000a00fa00e20f500034003e004f
:1004f00040498000e10f500003003200e20f50003d
:1005000011003a000c003700833920000300e0009e
:1005100001003a000040da009803e20002003500d2
:10052000a023ef0099e3a8009b43ab000d003a0025
:100530009b43a8000b003700e33a20000300e000d3
:1005400001003a000040da00ae03e200020035008c
:10055000b623ef00afe3a800b143ab0001003a00bf
:10056000b143a800820178000b0037003102fb0084
:10057000e10f500004003a009b23ab00feff3a005d
:10058000e41c880003003700b123ab00feff3a00f3
:10059000941d88008301e9000300e000f3ff3a00a6
:1005a000e10f500003003a009b03ab00feff320056
:1005b0000b003700b103ab00feff3200080037002c
:1005c00033002000b3bf9f00c0bf9f00d1bf9f007a
:1005d000e2bf9f006a805700800707006fb997004d
:1005e000020078000080fa00000006000a00fa000d
:1005f00051002000b1bf9f00c0bf9f006a8057001c
:10060000780707005fb897000080fa000000060036
:10061000889fbe0080047800704980000000e000e0
:1006200004003a000e0007000084eb000000e00028
:1006300008003500784980000900e000050032001c
:1006400009004400060007000000e00001003d0032
:100650000084eb00080078004f04be000000060094
:10066000800078000100e00003003a000000200054
:1006700070498800000005000080eb0002002000a7
:10068000828f500002003e00714988000000eb009c
:10069000000006000000050080017800020037001d
:1006a000b15978000201e9000200e000fcff3a00c5
:1006b0000000060041832000be0207008000780091
:1006c0000080eb000100e0000400350041832000c1
:1006d000a0002000020007004f80de00000006009e
:1006e000889fbe008a1f78000004be00c9009000e9
:1006f00069009000808f50000600390009007800e2
:100700006e030700800078000080eb000100e0002d
:100710001700350008457800490090000858780017
:10072000c00498001900780000b8a30004003a0043
:1007300000a8a30008003200ea4f540006003a0067
:100740000900780060020700800078000080eb005c
:100750000100e00006003a0000c02000190060001f
:100760000200320049009000e00498000a80fb007b
:100770004f0578004f04be0000000600889fbe00b1
:10078000800478000203be00010478006149b800cb
:10079000898fd2008381d200080278000600be0053
:1007a00012070700088044004f04be000000060046
:1007b000881f78000204780008017800b6ff07005f
:1007c000080040004f047800000006000000fa0016
:1007d000881f7800000478006a825700bfb997002c
:1007e00008017800e13b2000803d20001600070052
:1007f0000000e000020035008040eb00017478004a
:100800004f0478000080fa0000000600889fbe00b8
:10081000000478000203be0081047800080278001a
:1008200089017800120020000600be00750507004f
:10083000890f5000010032000004eb00080078002e
:100840004f04be00000006006800fa00889fbe004a
:100850008a9fbe0080047800010478008205780039
:10086000030578008400780000f92f000f00400095
:1008700062050700d98f9f00fb8f9f000000eb00ef
:10088000a09f9f00e88f9f009a84fb000904fb0053
:100890008904ea00cf4cde0050022000800f540093
:1008a0000d003200e18f54000b003a00090178007e
:1008b0008a0078007f889700df8997000300010095
:1008c000f08f9f000000e000950032002f98970005
:1008d0000000e800a09f9f0009054500500220008d
:1008e000800f5400040032000800e000e6ff3a00e8
:1008f0002f9897008b0037000000eb00809f9f002f
:10090000f0979f00e0979f00d0979f00c0979f00af
:10091000b0979f0007003700419120000100500070
:10092000000040008190200061007800cf9897007f
:1009300001007000c09f9f000a047800080578003d
:10094000ba4478008900fb0040912000bf020700f4
:100950000000e000f0ff3a00a1c2b30081cf5400d4
:100960000e003a008f8897000180e900808f9f0079
:1009700010007800b09f9f000000e00005003d00df
:100980000000ea00b09f9f004f9897000020a00051
:10099000c09f9f000804e80010003700b09f9f0030
:1009a000880078000000eb0005003700f3ff270007
:1009b000830f5000020032006a02b90004004100b7
:1009c00001047800880078003101fb000203b100c7
:1009d000e90f5100f5ff3600b09f9f00e0c2b30061
:1009e000984f1000020032000080eb001900370021
:1009f000a0c2b300d84f100007003a008f889700bc
:100a00000180e900808f9f0010007800909f9f0078
:100a10000804e800100037000000eb00909f9f00e2
:100a20008800780005003700f3ff2700830f50008f
:100a3000020032006a02b90004004100010478009b
:100a4000880078003101fb000203b100e90f51007a
:100a5000f5ff3600909f9f00984478008900fb00c6
:100a600000902000790207000000e0000200320040
:100a70000804e800010037008044eb00a97f9f00d4
:100a800080c6b30080cf540006003a0098cf14000f
:100a900010003a0066405000a07f9f000804e80064
:100aa0000c003700c0c6b30080cf540009003a00e4
:100ab00098cf140007003a0067404000d84f10005c
:100ac00002003a006e4050000100370010c7b3002a
:100ad000a07f9f001801fb00c3fb2f008f81410006
:100ae00001f92f008f80400020f92f000f004000f7
:100af000150007000000e00009003a00c1fb2f00cc
:100b00008f80400020f92f000f004000e103070014
:100b10000000e000020035000805e8005aff370039
:100b20000080eb004f05be004f04be000080fa00bd
:100b300000000600030278008201780001017800bd
:100b40006140200040ff3700889fbe008a1f780068
:100b5000000478000100780082407800e2c6b3000b
:100b600082cf5000c000320015003c006b415100a4
:100b700082cf5000240032000a003c007041510036
:100b800082cf5000f90032006541410082cf500011
:100b90006800320050c2b30080cf500028013a00f4
:100ba0002401370042c6b30082cf50001b00320040
:100bb0006541410082cf500021013a001700370003
:100bc00032c7b30082cf5000e800320007003c007b
:100bd0006441510082cf5000560032000241e800cb
:100be00082cf500016013a00d200370052c7b3003e
:100bf00082cf50004f0032006341410082cf50004d
:100c00000f013a004b0037009080e900010878009e
:100c1000280890009140780007013700086990008b
:100c2000c4c6b300844f510007003a001002780098
:100c300064015200020878001202be004fabde00d1
:100c4000860378001100370014c7b300844f5100a9
:100c500003003200a4c6b300844f510006003a00de
:100c60001002780068015200020878003202be00cb
:100c70002203be00050037001081e9000208780059
:100c800012027800cfa2de00612bb900049cbe00e6
:100c90000694be000868900082c6b300824f5000e0
:100ca0000d00320022c6b300824f500004003a000b
:100cb0000402fb00cfa2de00612bb9000800370060
:100cc00042c7b300824f500003003200664141002a
:100cd000824f500004003a00cfa2de00612bb90021
:100ce000049cbe000694be003802be002803be006d
:100cf00028089000d2c2b300e00f5200e08f5a00e3
:100d0000e00f5b00e08f5b000800350038119000b9
:100d10000218a30002003200b2c2b3000300370081
:100d20000208a3004c00320002c2b30082717800b6
:100d30004700370008699000c4c6b300844f5100d3
:100d400006003a00100278006401520002087800a0
:100d50001202be006033b8001100370014c7b300a0
:100d6000844f510003003200a4c6b300844f5100e9
:100d700006003a001002780068015200020878006c
:100d80003202be002203be00050037001081e900d8
:100d900002087800120278008002eb006033b8008d
:100da000049cbe000694be000868900082c6b30092
:100db000824f50000d00320022c6b300824f500017
:100dc00004003a000482fb008002eb006033b800ac
:100dd0000800370042c7b300824f500003003200c2
:100de00066414100824f500004003a008002eb004f
:100df0006033b800049cbe000694be00381090001a
:100e00000038a300140032003802be002803be00e0
:100e1000e00f5200e08f5a00e00f5b00e08f5b00b4
:100e20000d00320080c7b30080cf500003003200b5
:100e300080c5b30080cf500007003a00280890001a
:100e400002c3b300827178000000e800817178006d
:100e50000000e800200c98002808900080814100e4
:100e6000730498003e00370008699000c3c6b300c1
:100e70009080e900834f5100220032000a003c00bc
:100e8000e4c15100834f51002500320083c1e800c6
:100e9000834f510013003200e8c15100834f5100cd
:100ea0001e003a000a00370043c7b300834f5100c9
:100eb0001b003200e6c14100834f51001800320090
:100ec000e9c15100834f510014003a00050037007a
:100ed0000108780011007800286490000848780024
:100ee0005f003700010878001100780018129000a8
:100ef000cfa2de00612bb9000498be000690be00b0
:100f00005700370001087800110078001811900090
:100f1000cf91de000288be00510037009080e900ca
:100f20000108780011007800181490000808780073
:100f30004b0037009080e90001087800110278002a
:100f4000cfa2de00612bb900049cbe000694be0057
:100f500028089000808141007304980081c7b30085
:100f6000080078009c0107003d00370008699000e8
:100f700051c6b300814f51001a003a0010017800a9
:100f8000e4005100010878001100be00000c980038
:100f9000110c9800881190000300e00007003d004c
:100fa0008081eb000001eb00390507000001be0065
:100fb0008808900081005100080037000001eb0014
:100fc000330507000081700003003200080990001b
:100fd000820050000100370088109000410c9800fa
:100fe0001f0037009080e9000108780011057800a3
:100ff0007a049800881490000900e00004003d0085
:101000000a0078001d0107008004780007003700ff
:10101000090178008000eb000a0078000101070058
:101020000000e000010032008a045000490c9800e2
:101030000b00370028089000817178000600370007
:1010400028089000808141000104e00001003a007e
:1010500051c2b300814978000000e800200c9800dc
:101060000000eb004f0578004f04be0000000600b2
:10107000889fbe0000047800010078008204780098
:101080008801780009017800110020009100070014
:10109000890f5000010032000004eb0008007800c6
:1010a0004f04be00000006000000fa00e88157006f
:1010b0004fb9970041832000808320009dfe0700e8
:1010c0000080fa0000000600889fbe008a1f78009a
:1010d000000478000800e0000d003a002888200095
:1010e000700544008004eb00580078000000e00028
:1010f00004003200f4ff07000000e00001003d00a2
:101100008084eb008a0f5400f7ff3a002500370077
:1011100000002200180060008004eb002100320073
:10112000a80490000f0037000901510038409000da
:101130000000fb0089007800eafc07000000e000e6
:1011400007003c00280090004004980060049800cc
:10115000500c98001890a0008084eb00110037001c
:101160008084440048019000828f5400eeff3900d3
:1011700028009000400498009800780002c02000e9
:101180000281600001003a003800900001e8a300ed
:10119000020032006004980001003700500c9800f3
:1011a0008004eb00090078004f0578004f04be0072
:1011b00000000600889fbe008a9fbe008004780061
:1011c000010478002c003700c800900068009000ef
:1011d000808f50000400390008007800b700070035
:1011e0000000e000370035000040200018006000db
:1011f00009003200a100200009007800a5000700c6
:10120000800578000b00e0000300320061851400c7
:101210000a854500040037000900780097000700a0
:10122000000578008005eb0048009000e800900081
:10123000808050008a8f5000020031000105780044
:101240008005eb000a0178008900780012fd070094
:10125000480090000a004000400498000b00e000a5
:10126000040032000800780097ff07000000e0004b
:1012700014003a008a8444001904e000d2ff3a00c6
:10128000008020001800600006003200080078008e
:101290008dff0700800078000080eb000100e00077
:1012a00009003a0001c02000988060000000eb00b7
:1012b0000500320048009000600498000000eb0038
:1012c000010037000080eb004f05be004f04be0058
:1012d00000000600889fbe008a9fbe008c9fbe0053
:1012e0008e1f780000067800010478000200780064
:1012f000830478000881b900020778000200e0004a
:10130000420032000800e00041003200820578000f
:10131000c900900069009000808f500004003900df
:1013200009007800650007000000e0002900350092
:1013300000402000190060000a0032000b01780014
:10134000a10020000c00780036000700800678001d
:101350000d00e00006003200610516000a85460017
:10136000040037000b0578008006eb000100370011
:101370000b05780049009000e90090008080500043
:101380008a8f500002003100010578008006eb00d2
:101390000a0178008c007800bffc07008a855500a0
:1013a000490090000a004000c00498000d00e000d1
:1013b000040032000900780043ff07000000e0004d
:1013c00004003a000b00e000020032000a0646006a
:1013d000cfff3700008020001900600002003200bb
:1013e0000900780038ff070000c0200019006000e5
:1013f0000200320049009000e00498008b0557007d
:10140000110009008885d800010037000000eb00ba
:101410004f0778004f06be004f05be004f04be00c8
:101420000000060003003700b0cf100005003200b6
:101430000201e900800178000200e000faff3a00b2
:1014400000000500030078000000060002003700dd
:101450000304e0000600320000017800020078007a
:10146000b041780081cf5100f9ff3a000100370008
:101470000001eb0002007800000006008000780008
:10148000010178003104e000fdff3a000000510046
:10149000000006000001eb0000027800b041780077
:1014a00081cf510001003a00040178000304e000fc
:1014b000f9ff3a000200780000000600889fbe0095
:1014c0008a1f780000047800c8009000680190002e
:1014d0000000eb00828f50003c00390018007800bb
:1014e0002200290002016000e20f510007003200d3
:1014f000012020000000e000010035000120240050
:10150000008c70000080eb003000370002002600e5
:1015100002006000820f500009003a00380090007d
:10152000808f50000600390008007800e6fe0700b2
:10153000800078000080eb000100e00023003a000a
:101540001805780000c020000000650018003a006f
:10155000a80490006002200008004000808f540022
:1015600013003a00002020006603070020049800c2
:101570000000e00005003a002904980049049800a2
:101580008904e80039049800080037000a60a000c8
:101590000a0c780040049800012020008080400060
:1015a00031049800400c9800500c9800830207000a
:1015b00028009000500498003800900060049800c3
:1015c00000002600180c70000000eb004f057800aa
:1015d0004f04be0000000600fc874700889fbe0045
:1015e0008a9fbe008c9fbe008e1f78000006780088
:1015f00080c5b30080cf50000a0032007740400021
:1016000080cf50000a0032006940400080cf500077
:101610000b003200f08e200080bf9f00ae00200043
:101620000a003700e28d200082bf9f0006003700cd
:10163000f38e200083bf9f008e0020000300370040
:10164000f48e200084bf9f000e0120003c02be00eb
:101650002c03be000605be000404be0040c6b30055
:1016600080cf5000030032006540400080cf500022
:101670000b003a00e00f5200e08f5a00e00f5b00d1
:10168000e08f5b0006003d006000b8006011b8000c
:1016900004045000858458000605590087855900c8
:1016a000e80f57000400320040002000f00f570000
:1016b00038003a000100370030002000e00f5400ed
:1016c000e08f5c00e00f5d00e08f5d0004003a00f9
:1016d0008c1090008d0120000100e0000600320017
:1016e0008e00e900888060008fba9700e5c078001e
:1016f000f1ef9f007d012000800078008100e9006b
:10170000050033008b05d1000a85d3008984d300fe
:101710000884d300f9ff3700089ebe000a96be0079
:10172000120037008d06e9008e00e9008480600019
:101730000fb99700e2c1780082fd2f000f01410030
:1017400003f17e00800078008100e900050033008d
:101750008783d1000683d3008582d3000482d3001f
:10176000f9ff3700049ebe000696be003c02be0094
:101770002c03be00e00f5200e08f5a00e00f5b0028
:10178000e08f5b008b0034000d00e000e5ff3c00c3
:10179000880037000c68900081c6b300814f50006c
:1017a0000b00320006003c000004e000080032009c
:1017b000e6c05000814f50004e003a000400370050
:1017c000c1c6b300814f50004a003a0021003700e3
:1017d0000800e00004003a000c1090008d01200089
:1017e0000000e00006003200110009000e84d8005d
:1017f0000fb99700e2c07800f1ef9f007d01200053
:10180000110009000e84d8000a00370011000900f9
:101810000e04d8008d06e9000e81b90002045400c0
:101820008fb8970061417c0081fd2f008f804000c0
:1018300082f07e00000478000800e0000200320020
:101840000d00e000f1ff3c00cfc4de00614db900a7
:1018500025003700e00f5400e08f5c0004003a00e0
:101860000c1090008d0120000000e0000700320005
:101870006171b9000800be003f0307008fb99700ef
:10188000e3417800f3ef9f007d0120006171b90012
:101890000800be00280307000b0037006171b90083
:1018a0000800be00150307008d06e90000f1b9002d
:1018b000020454000fba9700e4427c0084fd2f001c
:1018c0000f02420005f27e000004be00e00f50004f
:1018d000e08f5800020032000d00e000efff3c00f6
:1018e0004fcdde008a057800089ebe000a96be0035
:1018f00030003700e00f5400e08f5c00e00f5d0027
:10190000e08f5d0004003a000c1090008d01200073
:101910000000e000090032006172b900612bb900db
:101920000800be000a01be00bc0307000fba970002
:1019300064427800f4ef9f007d0120006172b900dd
:10194000612bb9000800be000a01be00ac0307000d
:101950000d0037006172b900612bb9000800be00ac
:101960000a01be00b10307008d06e90000f2b900cc
:10197000040454008fba970065427c0085fd2f0057
:101980008f82420084f27e00009ebe000296be005e
:101990003c04be002c05be00e00f5400e08f5c004c
:1019a000e00f5d00e08f5d00020034000d00e000fc
:1019b000e8ff3c00e80f570010003a003c10900090
:1019c0000038a3000d003200f78f560006003e00dd
:1019d00085fd2f008f824200e5c07e0000c3b3006a
:1019e00080cf5000050032008d06e90002c3b3002d
:1019f00081fd2f008f80400082f07e0078811600ec
:101a0000420e98007c00900083fd2f008f814100e2
:101a10008d80410020fb07004c0890008c10900046
:101a2000810f500006003d0000805000300e9800ed
:101a30003c1090000040a100301698000f003700c5
:101a40000100e0000d003d00bc109000f48060003b
:101a5000f08f500009003a002c119000ac08900063
:101a6000810051003c0990008280500000805000ad
:101a70004240a90001003400300e98004f07780062
:101a80004f06be004f05be004f04be00cf01b1009f
:101a9000000006000400fa00889fbe008a9fbe0076
:101aa0008c1f78000004780001067800a8149000cc
:101ab00028089000808454003808900080845400e6
:101ac0004808900080845400580890008084540096
:101ad0006808900080845400780890008084540046
:101ae0000002220090bf9f0000032300a0bf9f00c0
:101af000381090000028a30015003a000900e0000b
:101b000013003400090578008a057800e20f5500bb
:101b1000010036002b002000c80190000b01780066
:101b2000ee805700680090000300010060049800f8
:101b30000000e000aa003200181090000b004000e6
:101b4000101498000b0555004240a900eeff3c0020
:101b5000280990000200e0000c003400c801900049
:101b60008c00780068009000030001006004980079
:101b70008080eb000000e0009a0032009810900096
:101b8000280890000080400010149800380d900044
:101b90000a00e000110034008a057800e20f5500c9
:101ba000010036002b002000c80190000b017800d6
:101bb000ec8057006800900003000100600498006a
:101bc0000000e00086003200181090000b0040007a
:101bd000101498000b055500edff370008699000c0
:101be000c808900050c6b300804f510008003a006a
:101bf0000100e00015003400580290000809900030
:101c00009809900068009000040001000700370068
:101c10000100e0000d003400c801900001017800cf
:101c2000f800900068009000030001006004980034
:101c30008080eb000000e0006a0032009810900005
:101c4000480890000080400010149800580d900043
:101c50000a00e000110034008a057800e20f550008
:101c6000010036002b002000c80190000b01780015
:101c7000ec805700680090000300010060049800a9
:101c80000000e00056003200181090000b004000e9
:101c9000101498000b055500edff370008699000ff
:101ca0006808900051c6b300814f51000d003a0002
:101cb0000000e0001c00340078019000c80890008b
:101cc000010141006111b800828fd2008381d200ee
:101cd0005802900080007800680090000400010025
:101ce000090037000000e0000f0034007801900088
:101cf000c808900081004100c801900000017800f0
:101d00006800900003000100600498008080eb00f0
:101d10000000e00033003200981090006808900046
:101d20000080400010149800780d90000a00e00038
:101d3000110034008a057800e20f550001003600da
:101d40002b002000c80190000b017800ec805700a8
:101d50006800900003000100600498000000e000ab
:101d60001f003200181090000b0040001014980063
:101d70000b055500edff3700381090008000eb0098
:101d80000028a300170032000900e000150034000d
:101d900009057800e28f5400010036002a00200077
:101da000c80190000a017800ee805700680090009a
:101db00003000100600498000000e0000800320009
:101dc000181090000a004000101498008a845400f3
:101dd0004240a900eeff3c008000eb00010037000c
:101de0008080eb00010078004f0678004f05be00b0
:101df0004f04be000080fa000000060001087800d1
:101e000000000600e6874700889fbe008a9fbe004c
:101e10008c9fbe008e1f780082bf9f000404780054
:101e2000029ab900f4b79f000400e00059003200a4
:101e30000fb997000200e000570032000006be0014
:101e400004077800c800900068009000808f500060
:101e5000040039000800780098fd07000000e00049
:101e60003b00350000402000180060000a003200ee
:101e70008e017800a20020000c00be008401070043
:101e80000005be0000807500070032008c0455007c
:101e90008904e800050037008e0478000a0020005d
:101ea0000b002000010037008e04780048019000ec
:101eb0006800900002005000890f500003003100bc
:101ec000800478000a0020000b0020006111b80097
:101ed000828fd2008381d200090278000c00be00fc
:101ee0004201070009075700480090000900400020
:101ef000400498000a85750004003200080078004c
:101f000071fc07000000e00011003a000e00e00044
:101f10000f0032006148b800808fd2008180d2006b
:101f20000000780000f0a1008c01d0000001d0007a
:101f3000028641004220a80081864e004200a9008e
:101f40004220ae004200a8000c86d300bdff37003f
:101f500000802000180060000200320008007800b5
:101f600059fc070000c02000180060000200320089
:101f7000c8019000630498007fb097000e075000de
:101f80000fb99700110009000287d800800178007e
:101f9000010037008001eb00030078004f07780054
:101fa0004f06be004f05be004f04be006f00b100db
:101fb000000006000008210061003700881f78003b
:101fc000a89220001804e00003003a00f9ff07007f
:101fd00020c0b300004c78004f04780000000600d9
:101fe000889fbe00000478000800780036fc0700d7
:101ff0008004780000042000180060000200320015
:10200000280090005a0007000000eb002004980010
:10201000384090000004e000050035000000fb009f
:1020200027f907000000e000010032008084eb0087
:10203000181090000000e000080032006bf9070063
:102040000000e000010032008084eb0018109000d6
:10205000470007000000eb00101498000008200063
:1020600018006000150032000001eb006000b800ad
:10207000438820000202d00063027a00880f5200d9
:1020800005003a00000040008180480000804100c7
:102090000008eb000600370061004000e0804800c7
:1020a0000201e800e80f5000e08f5800f0ff3a000e
:1020b000080078002e0007000e003700000c7800a2
:1020c00000c0eb003044980060022000080040008f
:1020d000200498004004980050049800400c980098
:1020e00060049800500c980070049800760044003a
:1020f000000c9800090078004f04be0000000600a4
:10210000881f78000004eb006140b800e2ff2f0058
:10211000f3ff2f001b0107002289200062007800d6
:102120000000e00001003200adff07000804e800f5
:10213000e80f5400f4ff3a004f0478000000060056
:10214000010020000100e0000800320001008000d2
:102150000100e000050032008100e9000100880074
:102160008100d0000200800000b17800000006006d
:102170000000e0002f003200c0017800e38f510022
:102180002c0036000308a3002a003a0031498000e1
:102190000100e00002003200810f50000400310015
:1021a000110098003049880016003700820078003e
:1021b000110190000200e00002003200800f510087
:1021c000faff39001102780084824000850f500028
:1021d00018003900808f520003003a008308420043
:1021e00001007800070037000200e0000300320021
:1021f00083014000830f51000e0039001200980047
:1022000090009800900090000100e000090032006a
:1022100010014000828f500006003a0042922000d8
:102220000009eb00100178001108410091009000b6
:102230001100980000000600889fbe00000478008e
:10224000214980000100e000020032000100780016
:102250000d003700314980006092200004003700f3
:10226000910f5400250036000180e8009100900095
:102270000100e000faff3a0010003700920f54000e
:102280001e0036000280e800100178000200e00025
:10229000faff3a0011017800314980006092200075
:1022a00004003700910f5400140036000180e8004c
:1022b00091009000828f5000faff3a006949800037
:1022c000888f5400010031008804780009007800ec
:1022d000360007000000e00004003a00888f540038
:1022e000050032008904d100f5ff37000918780095
:1022f0009fff0700d2ff37000000eb004f04be0035
:1023000000000600881f7800630440000800a10058
:102310008000eb00800f540021003600e30f5400d2
:1023200001003e004800200008007800c2ff0700be
:102330008000eb000000e0001900320090007800ff
:102340009101780064815100880f51000300310031
:102350001101900002087800070037000881400052
:102360000208780091019000130198001001780094
:102370001109140088087800100178000000eb00b3
:102380000200e00004003200920190000300e0002f
:10239000010032000280e800204988008180e800c6
:1023a000010078004f0478000000060080007800eb
:1023b0000000eb000100e00005003400010078009f
:1023c00093f80700e10f400001003a000000eb0025
:1023d0000000060000c0da000000060000c0da00bd
:1023e0000000060000c0da00000006003400f8001b
:1023f0003200f8000203be00820270008502720003
:1024000002f0a6008301e800a301880000f0a60006
:102410008100e800910188001500b2000c00320034
:10242000104978000402e900150032006101410002
:10243000020039003420ec00020028006100400056
:10244000f7ff39003220ec0000002800f4ff3700cd
:10245000100978000482e90009003200620141009d
:10246000020039003420ec00020028006200400025
:10247000f7ff39003220ec0000002800f4ff37009d
:102480003200f9003400f9000601be000000060029
:102490000300e000070032009501800091018800f0
:1024a00010427800950188000402fb00820f520060
:1024b000110032008301e90095018000910188003c
:1024c00010427800950188000404e0000800320002
:1024d000000278001000b00000026a004260af0005
:1024e00000f0a0000482d2000180b000e8ff3700b5
:1024f000000020000100200000000600839f68000b
:102500000100e00002003d0060001000e0801800c3
:102510000300e00002003d0060011100e0811900ad
:10252000050007004f00e00002003b0060001000c3
:10253000e0801800000006006022b80006022000bb
:102540000000d0008180d2000482d2008582d200b7
:102550000000a0000202520083825a0003003100f2
:102560000202420083824a000000a1000603e90043
:10257000f3ff3a0000000600efff07000400be0072
:1025800000000600020ab900001bb9000200b800f2
:10259000810042008100430000000600889fbe00c9
:1025a0008a9fbe0030044200b0844a0030054b00d0
:1025b00090854b006000b1000898be000a90be00f4
:1025c0000440e10005c8e10006d0e10007d8e100c1
:1025d00002003100680040001008e8004f05be000e
:1025e0004f04be0000000600889fbe008a9fbe0008
:1025f0003004be002005be000418540005985c009d
:1026000006185d0007985d00110020000440e100fd
:1026100005c8e10006d0e10007d8e100010039005b
:102620008000eb00108810004f05be004f04be0074
:10263000000006001200fa00889fbe008a9fbe00bc
:102640008c9fbe00e0b79f00f1b79f0082bf9f0044
:1026500093bf9f000605be000404be000000eb000f
:10266000d0b79f00c0b79f00b0b79f00a0b79f0032
:1026700090b79f00000678005fb19700cfb0970039
:10268000820141003fb097000200e00004003d00dd
:10269000370007007e805700c0ff070003003700a7
:1026a000330007007e805700cfff0700dfb697009a
:1026b0000d00e0000c0035006fb29700ffb29700ec
:1026c0000fbb97009fbb9700100020000100200067
:1026d0006011b80000027200818272000203730070
:1026e000838373001b0007000c06e8000104200030
:1026f000810f5600e0ff3a000d00e00004003d00ad
:102700000802be000a03be007e805700a3ff070038
:102710005fa897000000e00005003a001fb2970094
:10272000afb297003fb39700cfb3970009000700ff
:102730006fb09700ffb097000fb997009fb997004f
:102740004f06be004f05be004f04be000080fa00d9
:10275000000006000100070000000600a4b79f006b
:10276000b5b79f00c6b79f00d7b79f00000006000f
:102770004f09de0082817100b3b79f004f01de0078
:102780008180400082807000a1b79f008fb09700c9
:102790004f09de00000040000200700090b79f006b
:1027a0007fa897004f01de0081804000828070008a
:1027b00081b79f000d0007004f3ade000000400087
:1027c00004007000f0af9f00080007000402420000
:1027d00085824a0006034b0087834b00dfff07001a
:1027e0000802be000a03be00000006002fb29700d8
:1027f000bfb297004fb39700dfb397000000060009
:10280000881f780018002000881f780089ff0700c3
:102810008f87e9004f04780000000600801feb005e
:1028200084ff07008f87e90000000600889fbe0034
:102830008a9fbe00e00f5000e08f5800e00f590063
:10284000e08f59000c003d006044b8006055b800ae
:102850000000540081805c0002015d0083815d0006
:10286000180020001500070008003d0018000700b0
:102870000004eb00050037000004eb000f00070028
:1028800002003d001200070018002000dcff0700d6
:102890000800e000060032006022b8006033b80093
:1028a0000000520081805a0002015b0083815b00be
:1028b0004f05be004f04be0000000600e00f5200ae
:1028c000e08f5a00e00f5b00e08f5b000000060025
:1028d0006044b8006055b8000402540085825c0072
:1028e00006035d0087835d0000000600889fbe0030
:1028f0008a9fbe008c1f7800e00f5000e08f5800c8
:10290000e00f5900e08f59000d003d006044b80011
:102910006055b8000000540081805c0002015d0039
:1029200083815d001c0020000820e10009a8e1006f
:102930000ab0e1000bb8e1000d003d0008003700cf
:102940000006eb00e00f5200e08f5a00e00f5b0042
:10295000e08f5b0006003d006044b8006055b800a1
:102960000402540085825c0006035d0087835d00dd
:10297000aaff07000c00e000060032006022b80049
:102980006033b8000000520081805a0002015b00f1
:1029900083815b004f0678004f05be004f04be00e8
:0429a000000006002d
:020000040000fa
:1029a4002d200000205400006573000074200000f6
:1029b400546900006d65000072200000202d0000a5
:1029c400002d000054500000342d0000436f00001f
:1029d4007272000065630000746900006f6e00008d
:1029e4002d0000000d0a00002d2d00002d540000c4
:1029f400503400002d200000436f0000727200006c
:102a040065630000746900006f6e000020640000bc
:102a140075200000545000002d540000696d000022
:102a240065720000202d00002d2d00000d00000017
:102a34004e6f00006e000000537400007000000030
:102a44004370000074000000496e00007400000030
:102a5400456600006600000043680000726f0000d5
:102a64006e6f00002d250000732000002532000049
:102a7400643a000025300000326400000054000075
:102a8400656d000070730000205400006f75000035
:102a94007220000025320000643a00002530000056
:102aa4003264000000250000642f0000253000007f
:102ab400326400002f250000303200006420000042
:102ac40025320000643a0000253000003264000022
:102ad4003a25000030320000640000000d0a0000b6
:102ae4002121000021200000455200005245000031
:102af400555200002064000065200000736100004e
:102b040069730000696500002e2e00002e0000008d
:020000040000fa
:102b14000000fa0020002000404988000600070059
:102b240000000000004080000000e000fdff3a00cb
:102b340047000700feff37000000fa001c020700f0
:102b4400700620002b0407004006200087040700bd
:102b540003030700408920008040eb00014878000f
:102b6400508920008040eb000148780060892000f3
:102b74008040eb0001487800708920008040eb0021
:102b8400014878008089200061c0b30001487800c2
:102b94009089200041c0b30001487800a08920003a
:102ba40051c1b30001487800c14480000145880048
:102bb400208a2000a189200011487800a2448000c6
:102bc400b3448000e2448800f3448800a2448000b7
:102bd400b34480002245880033458800a244800025
:102be400b34480004245880053458800900120008a
:102bf4000040880020002000104088000468ef0096
:102c04000568ef000668ef000768ef001201200076
:102c1400214d2900c08b20009ef6070010c0b30090
:102c24000ae8b70012012000314e2900d08c2000a0
:102c340098f6070010c0b3000be8b70010030700b4
:102c4400404f29009af607000080fa0000000600b1
:102c54000000fa000a03070007c8bf000004e000f0
:102c640002003a008c000700020037007080200048
:102c74005800070001358000000420000080600037
:102c84000000e0000e003a0004c8bf000004e000a9
:102c94000c003a0010c0b30004e8b70007c8bf0036
:102ca4000004e0000300320007c8bf00e14f5000f9
:102cb40004003a0020c0b30007e8b7000100370061
:102cc4000468ef00013580000000220000806000ed
:102cd4000000e00012003a0011c0b3000040eb0015
:102ce400d101070005c8bf000004e00010003a004d
:102cf40010c0b30005e8b70007c8bf00e14f50009b
:102d040001003a000768ef0007c8bf00e24f500017
:102d140007003a0010c0b30007e8b700040037000a
:102d24008040eb000040eb00bf0107000568ef00a6
:102d34002133800000082000008060000000e000d3
:102d440014003a00608a20008040eb0001487800bb
:102d5400508a20008040eb0001487800408a20001f
:102d64008040eb0001487800a08a20008040eb00fe
:102d740001487800908a20008040eb0001487800e8
:102d8400808a20008040eb000148780030c0b30006
:102d940007e8b700013580000008200000806000cb
:102da4000000e00009003a0007c8bf00e24f5000ed
:102db40006003a00224580003345800042458800e1
:102dc4005345880030c0b30007e8b7000080fa001c
:102dd400000006000200fa00000f7800508a20006c
:102de400104078000081fb00608a200010407800c9
:102df4008080fb001e007800104078000080fb00fb
:102e040080014000a0912000008041001000780063
:102e1400821f7800811f7800801f7800e05229000b
:102e2400801f7800c08b200067f60700e8875700f2
:102e340010c0b3000ae8b7001e0078001040780004
:102e4400e34f500012003a00908a200010407800ae
:102e54008080fb00a08a2000104078000080fb00e6
:102e6400811f7800801f780010542900801f78008b
:102e7400d08c200054f60700e687570010c0b3003a
:102e84000be8b7001e00780021c0b30001487800a9
:102e94000080fa00000006000600fa008089200085
:102ea400104f7800908920009040780011479800d6
:102eb400a089200090407800214798007089200064
:102ec4009040780031479800608920009040780055
:102ed400414798005089200090407800514798005d
:102ee4005e4090008082fb004e4090000082fb0018
:102ef4003e4090008081fb002e4090000081fb004a
:102f04001e4090008080fb001e80fb00851f78001f
:102f1400841f7800831f7800821f7800811f780047
:102f2400801f780050552900801f7800c08b200036
:102f340025f60700ee87570010c0b3000ae8b70073
:102f44000080fa00000006000200fa00004f78003a
:102f54001e407800610307001e407800a3000700ac
:102f64000080fa00000006000000fa0004000700d8
:102f7400170007006e0007000080fa00000006003a
:102f84000000fa00004080000000e000030032006e
:102f9400004080000000e9000040880010408000ec
:102fa4000000e00005003a002000200010408800e6
:102fb40010c0b300790107000300370010408000ff
:102fc4000000e900104088000080fa0000000600bc
:102fd4000000fa004089200010407800e34f5000c0
:102fe40006003e0040892000104078008040e80040
:102ff40040892000014878004b00370040892000b8
:103004008040eb000148780050892000904078000f
:10301400a0c3b30080cf500006003e0050892000ba
:10302400104078008040e800508920000148780072
:103034003d003700508920008040eb0001487800b3
:103044006089200090407800a0c3b30080cf500076
:1030540006003e0060892000104078008040e800af
:1030640060892000014878002f0037006089200023
:103074008040eb00014878007089200010407800ff
:10308400f64f500006003e00708920001040780082
:103094008040e80070892000014878002200370051
:1030a400708920008040eb0001487800808920006e
:1030b40010407800fd4f500006003e00808920003b
:1030c400104078008040e8008089200001487800a2
:1030d400150037008089200011c0b3000148780032
:1030e4009089200010407800eb4f500006003e000d
:1030f40090892000104078008040e80090892000ea
:1031040001487800080037009089200011c0b300fe
:1031140001487800a0892000104078008040e80031
:10312400a0892000014878000080fa000000060011
:103134000000fa0007c8bf00e24f500029003a001f
:10314400408a200010407800e34f500006003e0003
:10315400408a2000104078008040e800408a200027
:10316400014878001f003700408a20008040eb00af
:1031740001487800508a200090407800a0c3b30032
:1031840080cf500006003e00508a20001040780096
:103194008040e800508a2000014878001100370080
:1031a400508a20008040eb0001487800608a2000ab
:1031b40090407800a0c3b30080cf500006003e00ca
:1031c400608a2000104078008040e800608a200077
:1031d4000148780003003700608a20008040eb003b
:1031e400014878000080fa00000006000200fa009e
:1031f400004f7800d0c3b3009e40780080cf5000c9
:1032040009003a002500070008c8bf008080fb00c1
:10321400c28a20009e41780003f178000040e80053
:1032240008e8b7001b0037001e407800ed4f50003f
:103234000b003a0008c8bf00ed4f500002003600f2
:10324400250007000400370000572900801f78007c
:1032540094f707008f87e9000868ef000d00370036
:1032640008c8bf000004e0000a00320008c8bf001c
:10327400ef4f500007003e0008c8bf008080fb00ed
:10328400c28a20009e41780003f178000040e800e3
:1032940008e8b7000080fa00000006000200fa0007
:1032a4000040eb00004f7800050037001e80fb0053
:1032b400c18a20000041eb00827078001e4fe800b4
:1032c4001e407800ef4f5000f8ff36000868ef000a
:1032d4000080fa00000006000000fa00d08a2000f6
:1032e40020000700018a200080487800008b20001d
:1032f4001c000700118a200080487800308b2000d1
:1033040018000700218a200080487800608b200084
:1033140014000700f189200080487800908b200079
:1033240010000700e189200080487800d08920003f
:103334008040eb000148780001458000c1448800ca
:10334400a0892000218a200011487800e2448000ee
:10335400f3448000a2448800b34488000080fa004b
:10336400000006000400fa00100798001e009000f8
:10337400104078006f4f60001e0090000000e800cd
:10338400100798001e4078006a00b9000000780019
:10339400004f78001e009000104078006f406000dd
:1033a4001e4f40001e4078000080fa000000060016
:1033b4000000fa006626ef006206a9006b46a90029
:1033c4006226a9006b26a9006246a9006266a900cc
:1033d4006286a90062a6a9006ac6a90062c6a900fd
:1033e4006ae6a900a226ef00a6c6a9009ec6a80008
:1033f400a6e6a9009ee6a8009fa6a80062e6a8008b
:10340400b626ef00b226ef00a286a9009e86a90088
:10341400a2a6a9009ea6a9007be6a90077e6a900ba
:103424000080fa00000006000200fa00004f780055
:10343400114798001e80fb00e30f50002d0032005e
:10344400e30f500007003c00e10f5000150032006c
:10345400e10f50001d003c000000e00008003200b5
:103464004c003700e50f500036003200e50f5000e5
:103474002a003500e60f50003c00320045003700ba
:103484001e409000614060000080fb00610060000d
:10349400313380000100a100010070003033880046
:1034a4003c0037001e409000614060000080fb003b
:1034b4006100600000004000313380000110a10071
:1034c4000100700030338800320037001e40900045
:1034d400614060000080fb00610060004200dd008c
:1034e400313380000120a1000100700030338800d6
:1034f400280037001e409000614060000080fb00ff
:10350400610060004300dd00313380000130a10020
:1035140001007000303388001e0037001e40900008
:10352400614060000080fb00610060004400dd0039
:10353400313380000140a100010070003033880065
:10354400140037001e409000614060000080fb00c2
:10355400610060004500dd00313380000150a100ae
:1035640001007000303388000a0037001e409000cc
:10357400614060000080fb00610060004600dd00e7
:10358400313380000160a1000100700030338800f5
:10359400000000000080fa00000006000200fa00ab
:1035a400004f78001e80fb00e30f5000360032000d
:1035b400e30f500007003c00e10f500018003200f8
:1035c400e10f500023003c000000e000080032003e
:1035d40061003700e50f500045003200e50f500050
:1035e40036003500e60f50004e0032005a00370016
:1035f40030338000610060000000e000040032000d
:103604008040eb000040eb0087ff070052003700ca
:1036140011c0b3000040eb0083ff07004e003700e9
:10362400303380000000d100614060000004a2003b
:10363400614060000080fb00610060000000400009
:10364400313380000110a100010070003033880084
:1036540041003700303380004200de0061406000ea
:1036640000c0ea00614060000080fb00610060006f
:103674004200dd00313380000120a1000100700010
:103684003033880034003700303380004300de00dc
:103694006140600000c0ea00614060000080fb00ff
:1036a400610060004300dd00313380000130a1007f
:1036b4000100700030338800270037003033800069
:1036c4004400de006140600000c0ea006140600028
:1036d4000080fb00610060004400dd0031338000a5
:1036e4000140a10001007000303388001a00370047
:1036f400303380004500de006140600000c0ea0015
:10370400614060000080fb00610060004500dd0056
:10371400313380000150a100010070003033880073
:103724000d003700303380004600de006140600049
:1037340000c0ea00614060000080fb00610060009e
:103744004600dd00313380000160a10001007000fb
:1037540030338800000000000080fa0000000600fa
:103764000000fa00a286a900b626ef00a2a6a900ce
:103774007be6a90021000700409c20006a000700a6
:1037840030002000b0358800800220006600070069
:103794004a000700500020006300070047000700ac
:1037a40050002000600007004400070020002000b3
:1037b4005d00070080c3b30047000700a00f20008e
:1037c40059000700f0c0b30043000700a00f200019
:1037d4005500070060c0b3003f000700a00f2000a1
:1037e4005100070010c0b3003b000700409c2000bc
:1037f4004d0007000080fa00000006000200fa00f5
:103804000a68ef000040eb00004f78000500370025
:103814001e80fb00c18b200002c2b30082707800be
:103824001e4fe8001e407800ef4f5000f8ff3600ae
:10383400c08c20008040eb00014878000b68ef004a
:103844000040eb00004f7800050037001e80fb00ad
:10385400d18c200002c2b300827078001e4fe800b1
:103864001e407800ef4f5000f8ff3600d08d200046
:103874008040eb00014878000080fa000000060058
:103884000000fa000ac8bf00e14f500003003a00ec
:10389400c08b2000430007000a68ef000bc8bf007c
:1038a400e14f500003003a00d08c20004f00070085
:1038b4000b68ef000080fa00000006000000fa0028
:1038c400a286a800a000200017000700a286a90075
:1038d4000080fa00000006000200fa00004f7800a1
:1038e4001e80fb00b03588007be6a900f3ff0700cb
:1038f400a00020000c0007000080fa000000060071
:103904000200fa00004f78001e80fb00b0358800ea
:103914007be6a800e9ff0700a000200002000700e2
:103924000080fa00000006000600fa002007980054
:10393400ae009000010f78000b0037000000eb0090
:1039440010079800030037001e0090000000e800f4
:10395400100798009e009000e0062000808f500021
:10396400f9ff36001e0fe9001e007800e10f500039
:10397400f2ff3e000080fa00000006000000fa009a
:1039840000c8b300d4ff07000080fa00000006005e
:103994000000fa0000ccb300cfff07000080fa005b
:1039a400000006000400fa0010079800f3ff070067
:1039b4000040eb00004f7800070037001e00900025
:1039c400104078009e0090008100e80011079800e4
:1039d400cbff07001e4fe8001e407800ef4f500059
:1039e400f6ff36000080fa00000006000400fa002a
:1039f40010079800e6ff07000040eb00004f780036
:103a0400060037001e80fb009e00900000804000ee
:103a140010407800baff07001e4fe8001e407800ef
:103a2400ef4f5000f7ff36000080fa000000060058
:020000040000fa
:103a3400bc08000022000000800000000a0800000a
:103a440002000000800000001a0900000a000000c3
:103a5400820000001a951e009522950026952a00e2
:103a64009500000094080000280000008000000079
:103a7400000800000a00000080000000280900007f
:103a84000200000082000000010000000c08000099
:103a940088000000820000000100000000320800dd
:103aa40033083200083208003208320008220800c5
:103ab4000000000000000000000000000000000002
:103ac40000000000000000000000000000020800e8
:103ad40001015a00085b08005a085a00085a0800f5
:103ae4005a084a000800000000000000000000001e
:103af40000000000000000000000000000000000c2
:103b04000000020008020200820883000882080004
:103b14008208820008820800720800000000000089
:103b24000000000000000000000000000000000091
:103b340000000000000000000c083400085c0800cd
:103b44000000000000000000000000000000000071
:103b5400000900001a00000082000000686a6c007e
:103b6400747a4c0000000100000200000400080008
:103b740000100000000020002b2d23003000000066
:103b8400de08000022000000820000003031320014
:103b94003334350036373800394142004344450058
:103ba40046003000313233003435360037383900be
:103bb4006162630064656600000000002a09000079
:103bc40002000000800000002c0900000200000038
:103bd400820000000400000024090000040000002a
:103be400800000002e090000020000008000000098
:043bf40000000000cd
:020000040000fa
:103bf8000200fa00000f7800ae23ef00b023ef00b8
:103c0800caa6a800c6a6a900c686a8000108800002
:103c1800f00b200000816000600420007105200086
:103c28000310200080497800814978008249780093
:103c3800b13d800000fc2f0000806000a000b300b0
:103c4800b03d8800213f8000f00f28008080600090
:103c58000050200001007000203f8800000880000c
:103c6800000178000260a0006004200071052000b7
:103c78000310200080497800814978008249780043
:103c8800afe3a800ae63a800ae03a900711d8000d1
:103c980090ff2f0000806000701d8800ae63a800b0
:103ca8009e007800b11d8800afe3a800b143a800ca
:103cb800b183a800b1058000f08f2f00008060005c
:103cc8000080a000b00588009bc0a800b823ef00c2
:103cd8000080fa00000006000400fa00204798005f
:103ce80000000000811d800000102000008060009e
:103cf8000000e000fbff32002e4090000080fb0037
:103d0800000f7800f00720001e0f60009e0078006a
:103d1800911d88000080fa00000006000200fa00e9
:103d2800004f78001e407800ebff07000080fa0083
:103d3800000006000200fa00000f780004003700b7
:103d48001e007800104078001e0fe800e2ff070010
:103d58001e007800104078000004e000f8ff3a00e8
:103d68000080fa00000006000200fa00000f780048
:103d78009860a9009421ef00a10c8000f0fc2f00ae
:103d8800008060000050a000a00c88009421a900c9
:103d9800a10c8000f0cf2f00008060000090a000f0
:103da800a00c880094c1a9009441a8009021ef00bc
:103db8009e007800a00620000088b9000000780066
:103dc800900c880041058000f0ff2800008060000a
:103dd80000e0a000400588008860a9009860a8005d
:0c3de80095e1a8000080fa000000060031
:020000040000fa
:020000040015e5
:047e0000ffff000080
:020000040000fa
:020000040015e5
:047e2000ff1f000040
:020000040000fa
:020000040015e5
:047e300088ffff00c8
:020000040000fa
:020000040015e5
:047e3800a3ffff00a5
:020000040000fa
:020000040015e5
:047e40009fffff00a1
:020000040000fa
:020000040015e5
:047e4800ffffff0039
:020000040000fa
:020000040015e5
:047e5000dfffff0051
:020000040000fa
:020000040015e5
:047e5800ffffff0029
:020000040000fa
:020000040100f9
:04300000ffffff00cf
:00000001FF
