:020000040000fa
:080000000001040000000000f3
:020000040000fa
:040008000c020000e6
:020000040000fa
:04000c000c020000e2
:020000040000fa
:040010000c020000de
:020000040000fa
:040014000c020000da
:020000040000fa
:040018000c020000d6
:020000040000fa
:04001c000c020000d2
:020000040000fa
:040020000c020000ce
:020000040000fa
:040024000c020000ca
:020000040000fa
:040028000c020000c6
:020000040000fa
:04002c000c020000c2
:020000040000fa
:040030000c020000be
:020000040000fa
:040034000c020000ba
:020000040000fa
:040038000c020000b6
:020000040000fa
:04003c000c020000b2
:020000040000fa
:040040000c020000ae
:020000040000fa
:040044000c020000aa
:020000040000fa
:040048000c020000a6
:020000040000fa
:04004c000c020000a2
:020000040000fa
:040050000c0200009e
:020000040000fa
:040054000c0200009a
:020000040000fa
:040058000c02000096
:020000040000fa
:04005c000c02000092
:020000040000fa
:040060000c0200008e
:020000040000fa
:040064000c0200008a
:020000040000fa
:040068000c02000086
:020000040000fa
:04006c000c02000082
:020000040000fa
:040070000c0200007e
:020000040000fa
:040074000c0200007a
:020000040000fa
:040078000c02000076
:020000040000fa
:04007c000c02000072
:020000040000fa
:040080000c0200006e
:020000040000fa
:040084000c0200006a
:020000040000fa
:040088000c02000066
:020000040000fa
:04008c000c02000062
:020000040000fa
:040090000c0200005e
:020000040000fa
:040094000c0200005a
:020000040000fa
:040098000c02000056
:020000040000fa
:04009c000c02000052
:020000040000fa
:0400a0000c0200004e
:020000040000fa
:0400a4000c0200004a
:020000040000fa
:0400a8000c02000046
:020000040000fa
:0400ac000c02000042
:020000040000fa
:0400b0000c0200003e
:020000040000fa
:0400b4000c0200003a
:020000040000fa
:0400b8000c02000036
:020000040000fa
:0400bc000c02000032
:020000040000fa
:0400c0000c0200002e
:020000040000fa
:0400c4000c0200002a
:020000040000fa
:0400c8000c02000026
:020000040000fa
:0400cc000c02000022
:020000040000fa
:0400d0000c0200001e
:020000040000fa
:0400d4000c0200001a
:020000040000fa
:0400d8000c02000016
:020000040000fa
:0400dc000c02000012
:020000040000fa
:0400e0000c0200000e
:020000040000fa
:0400e4000c0200000a
:020000040000fa
:0400e8000c02000006
:020000040000fa
:0400ec000c02000002
:020000040000fa
:0400f0000c020000fe
:020000040000fa
:0400f4000c020000fa
:020000040000fa
:0400f8000c020000f6
:020000040000fa
:0400fc000c020000f2
:020000040000fa
:040100000c020000ed
:020000040000fa
:040104000c020000e9
:020000040000fa
:040108000c020000e5
:020000040000fa
:04010c000c020000e1
:020000040000fa
:040110000c020000dd
:020000040000fa
:040114000c020000d9
:020000040000fa
:040118000c020000d5
:020000040000fa
:04011c000c020000d1
:020000040000fa
:040120000c020000cd
:020000040000fa
:040124000c020000c9
:020000040000fa
:040128000c020000c5
:020000040000fa
:04012c000c020000c1
:020000040000fa
:040130000c020000bd
:020000040000fa
:040134000c020000b9
:020000040000fa
:040138000c020000b5
:020000040000fa
:04013c000c020000b1
:020000040000fa
:040140000c020000ad
:020000040000fa
:040144000c020000a9
:020000040000fa
:040148000c020000a5
:020000040000fa
:04014c000c020000a1
:020000040000fa
:040150000c0200009d
:020000040000fa
:040154000c02000099
:020000040000fa
:040158000c02000095
:020000040000fa
:04015c000c02000091
:020000040000fa
:040160000c0200008d
:020000040000fa
:040164000c02000089
:020000040000fa
:040168000c02000085
:020000040000fa
:04016c000c02000081
:020000040000fa
:040170000c0200007d
:020000040000fa
:040174000c02000079
:020000040000fa
:040178000c02000075
:020000040000fa
:04017c000c02000071
:020000040000fa
:040180000c0200006d
:020000040000fa
:040184000c02000069
:020000040000fa
:040188000c02000065
:020000040000fa
:04018c000c02000061
:020000040000fa
:040190000c0200005d
:020000040000fa
:040194000c02000059
:020000040000fa
:040198000c02000055
:020000040000fa
:04019c000c02000051
:020000040000fa
:0401a0000c0200004d
:020000040000fa
:0401a4000c02000049
:020000040000fa
:0401a8000c02000045
:020000040000fa
:0401ac000c02000041
:020000040000fa
:0401b0000c0200003d
:020000040000fa
:0401b4000c02000039
:020000040000fa
:0401b8000c02000035
:020000040000fa
:0401bc000c02000031
:020000040000fa
:0401c0000c0200002d
:020000040000fa
:0401c4000c02000029
:020000040000fa
:0401c8000c02000025
:020000040000fa
:0401cc000c02000021
:020000040000fa
:0401d0000c0200001d
:020000040000fa
:0401d4000c02000019
:020000040000fa
:0401d8000c02000015
:020000040000fa
:0401dc000c02000011
:020000040000fa
:0401e0000c0200000d
:020000040000fa
:0401e4000c02000009
:020000040000fa
:0401e8000c02000005
:020000040000fa
:0401ec000c02000001
:020000040000fa
:0401f0000c020000fd
:020000040000fa
:0401f4000c020000f9
:020000040000fa
:0401f8000c020000f5
:020000040000fa
:0401fc000c020000f1
:020000040000fa
:100200004f8020000eff27000e0188000000000034
:10021000000020000000e000020032000001200089
:1002200020028800140007007d0007000000e000a5
:1002300003003a004048200001002000020037007f
:100240000000200001002000810f7000010032003a
:1002500014000700000020000000e000020032004f
:100260000000020000000000b003020000000000d7
:100270000040da000000fe004440a90020002000f9
:100280000000e00003003200100020009001880010
:100290004440a800000006008a1f78008b1f7800e9
:1002a00000000600a1028800800478000000eb0036
:1002b0001f003700e284440054a0b4009905ba003e
:1002c000e284440054a0b4009906ba00e2844400d9
:1002d00054a0b4000006eb00476fde00fd07b2003b
:1002e000ae018800636ce10003003a00eaff0700fa
:1002f0000000eb000e003700606ce10008003a00df
:10030000004deb000a05e800020039003420ec0043
:100310000af0a0008b05e900f9ff3e000400370059
:100320006168e100010032000086eb000b0007006d
:1003300019c7ba001905ba000e04e00003003a001c
:100340000a00e000dbff3a0000000600fe07b200f2
:10035000ae0288008a047800f5ff37000cd0a300b5
:10036000e20f4d001c00390089027800354dba00bb
:100370000a05e800020039003420ec000af0a00071
:100380008b05e9000f003200254dba000a05e80090
:10039000020039003420ec000af0a0008b05e900cf
:1003a000080032000c00e0000600320015cdba0053
:1003b0000a05e800020039003420ec000af0a00031
:1003c0008b05e9008984e80054a0b4000b00e0002c
:1003d000e2ff3a00000006009902ba00055d7800cd
:1003e0008b05e900f7ff3200c82ade00055d7800c2
:1003f0008b05e900f3ff32000c00e000f1ff320052
:1004000019ddba00eeff3700000404000000000010
:1004100032040400000000000040da000000fe008a
:0404200000000500d3
:020000040000fa
:100424000000fa006626ef006206a9006226a90011
:100434006b26a9006246a9006266a9006286a9002b
:1004440062a6a9006ac6a90062c6a9006ae6a90054
:1004540062e6a800a226ef00a6c6a9009ec6a800d0
:10046400a6e6a9009ee6a8009fa6a8000080fa00c0
:10047400000006000200fa00004f780011479800bf
:100484001e80fb00e30f500025003200e30f5000f4
:1004940007003c00e10f500013003200e10f500050
:1004a40018003c000000e00008003200380037006b
:1004b400e50f500028003200e50f50001f00350002
:1004c400e60f50002b003200310037001e40900030
:1004d400e14f500002003a006406a8002c003700e7
:1004e4006406a9002a0037001e4090000004e000c2
:1004f400020032006426a800250037006426a90003
:10050400230037001e4090000004e0000200320087
:100514006446a8001e0037006446a9001c0037008a
:100524001e4090000004e000020032006466a8004f
:10053400170037006466a900150037001e409000bc
:100544000004e000020032006486a80010003700b6
:100554006486a9000e0037001e4090000004e000ed
:100564000200320064a6a8000900370064a6a900ae
:10057400070037001e4090000004e0000200320033
:1005840064c6a8000200370064c6a9000000000089
:100594000080fa00000006000200fa00004f780014
:1005a4001e80fb00e30f500036003200e30f5000c2
:1005b40007003c00e10f500018003200e10f50002a
:1005c40023003c000000e000080032006100370016
:1005d400e50f500045003200e50f500036003500ad
:1005e400e60f50004e0032005a00370020338000de
:1005f400004078006140600000c0ea006140600093
:100604000080fb0061006000213380000100a10034
:1006140001007000203388004e0037002033800032
:100624000000d1006140600000c0ea006140600049
:100634000080fb0061006000000040002133800066
:100644000110a10001007000203388004100370030
:10065400203380004200de006140600000c0ea00f8
:10066400614060000080fb00610060004200dd002a
:10067400213380000120a100010070002033880094
:1006840034003700203380004300de006140600006
:1006940000c0ea00614060000080fb00610060006f
:1006a4004300dd00213380000130a100010070000f
:1006b4002033880027003700203380004400de0008
:1006c4006140600000c0ea00614060000080fb00ff
:1006d400610060004400dd00213380000140a1007e
:1006e40001007000203388001a0037002033800096
:1006f4004500de006140600000c0ea006140600027
:100704000080fb00610060004500dd0021338000b3
:100714000150a10001007000203388000d00370053
:10072400203380004600de006140600000c0ea0023
:10073400614060000080fb00610060004600dd0055
:10074400213380000160a100010070002033880083
:10075400000000000080fa00000006000000fa001b
:100764000200070008000700feff37000000fa003f
:100774000028ef000268ef000368ef0028ff07007d
:100784000080fa00000006000000fa000135800035
:1007940000002200008060000000e00004003a0035
:1007a40011c0b3000040eb0032ff07000300370024
:1007b4008040eb000040eb002eff070000402000cb
:1007c40000000100204320000000010000408000e0
:1007d4000000e80000408800014080000071220011
:1007e400808f5000030036000028ef0010c0b300d3
:1007f40069ff07000080fa00000006000000fa000c
:100804000135800000002200008060000000e0004c
:100814000b003a00013580000008200000806000d1
:100824000000e00003003a0011c0b30020c0b30090
:1008340010ff07008040eb0020c0b3000dff07004d
:100844000080fa00000006000400fa001007980077
:100854000000eb00000f78000080fa0000000600a2
:100864000400fa000000eb0010079800500020007c
:10087400100798000000eb00000f7800013580009d
:1008840000042000008060000000e00011003a0035
:100894000400370011c0b30030c0b300f5fe0700f8
:1008a4001e0fe8001e0178009e00900000712200d7
:1008b4000088b90000007800800f5100f5ff39006e
:1008c4001e009000e0ff07008040eb0030c0b30042
:1008d400e8fe07000080fa00000006000000fa00ad
:1008e4000135800000042000008060000000e0006a
:1008f40002003a0040c0b30027ff07000080fa005e
:0409040000000600e9
:020000040000fa
:100908000008000004000000800000000000000053
:00000001FF
