:020000040000fa
:080000000001040000000000f3
:020000040000fa
:0400080032020000c0
:020000040000fa
:04000c0032020000bc
:020000040000fa
:0400100032020000b8
:020000040000fa
:0400140032020000b4
:020000040000fa
:0400180032020000b0
:020000040000fa
:04001c0032020000ac
:020000040000fa
:0400200032020000a8
:020000040000fa
:0400240032020000a4
:020000040000fa
:0400280032020000a0
:020000040000fa
:04002c00320200009c
:020000040000fa
:040030003202000098
:020000040000fa
:040034003202000094
:020000040000fa
:040038003202000090
:020000040000fa
:04003c00320200008c
:020000040000fa
:040040003202000088
:020000040000fa
:040044003202000084
:020000040000fa
:040048003202000080
:020000040000fa
:04004c00320200007c
:020000040000fa
:040050003202000078
:020000040000fa
:040054003202000074
:020000040000fa
:040058003202000070
:020000040000fa
:04005c00320200006c
:020000040000fa
:040060003202000068
:020000040000fa
:040064003202000064
:020000040000fa
:040068003202000060
:020000040000fa
:04006c00320200005c
:020000040000fa
:040070003202000058
:020000040000fa
:040074003202000054
:020000040000fa
:040078003202000050
:020000040000fa
:04007c00320200004c
:020000040000fa
:040080003202000048
:020000040000fa
:040084003202000044
:020000040000fa
:040088003202000040
:020000040000fa
:04008c00320200003c
:020000040000fa
:040090003202000038
:020000040000fa
:040094003202000034
:020000040000fa
:040098003202000030
:020000040000fa
:04009c00320200002c
:020000040000fa
:0400a000100200004a
:020000040000fa
:0400a4003202000024
:020000040000fa
:0400a8003202000020
:020000040000fa
:0400ac00320200001c
:020000040000fa
:0400b0003202000018
:020000040000fa
:0400b4003202000014
:020000040000fa
:0400b8003202000010
:020000040000fa
:0400bc00320200000c
:020000040000fa
:0400c0003202000008
:020000040000fa
:0400c4003202000004
:020000040000fa
:0400c8003202000000
:020000040000fa
:0400cc0032020000fc
:020000040000fa
:0400d00032020000f8
:020000040000fa
:0400d40032020000f4
:020000040000fa
:0400d80032020000f0
:020000040000fa
:0400dc0032020000ec
:020000040000fa
:0400e00032020000e8
:020000040000fa
:0400e40032020000e4
:020000040000fa
:0400e80032020000e0
:020000040000fa
:0400ec0032020000dc
:020000040000fa
:0400f00032020000d8
:020000040000fa
:0400f40032020000d4
:020000040000fa
:0400f80032020000d0
:020000040000fa
:0400fc0032020000cc
:020000040000fa
:0401000032020000c7
:020000040000fa
:0401040032020000c3
:020000040000fa
:0401080032020000bf
:020000040000fa
:04010c0032020000bb
:020000040000fa
:0401100032020000b7
:020000040000fa
:0401140032020000b3
:020000040000fa
:0401180032020000af
:020000040000fa
:04011c0032020000ab
:020000040000fa
:0401200032020000a7
:020000040000fa
:0401240032020000a3
:020000040000fa
:04012800320200009f
:020000040000fa
:04012c00320200009b
:020000040000fa
:040130003202000097
:020000040000fa
:040134003202000093
:020000040000fa
:04013800320200008f
:020000040000fa
:04013c00320200008b
:020000040000fa
:040140003202000087
:020000040000fa
:040144003202000083
:020000040000fa
:04014800320200007f
:020000040000fa
:04014c00320200007b
:020000040000fa
:040150003202000077
:020000040000fa
:040154003202000073
:020000040000fa
:04015800320200006f
:020000040000fa
:04015c00320200006b
:020000040000fa
:040160003202000067
:020000040000fa
:040164003202000063
:020000040000fa
:04016800320200005f
:020000040000fa
:04016c00320200005b
:020000040000fa
:040170003202000057
:020000040000fa
:040174003202000053
:020000040000fa
:04017800320200004f
:020000040000fa
:04017c00320200004b
:020000040000fa
:040180003202000047
:020000040000fa
:040184003202000043
:020000040000fa
:04018800320200003f
:020000040000fa
:04018c00320200003b
:020000040000fa
:040190003202000037
:020000040000fa
:040194003202000033
:020000040000fa
:04019800320200002f
:020000040000fa
:04019c00320200002b
:020000040000fa
:0401a0003202000027
:020000040000fa
:0401a4003202000023
:020000040000fa
:0401a800320200001f
:020000040000fa
:0401ac00320200001b
:020000040000fa
:0401b0003202000017
:020000040000fa
:0401b4003202000013
:020000040000fa
:0401b800320200000f
:020000040000fa
:0401bc00320200000b
:020000040000fa
:0401c0003202000007
:020000040000fa
:0401c4003202000003
:020000040000fa
:0401c80032020000ff
:020000040000fa
:0401cc0032020000fb
:020000040000fa
:0401d00032020000f7
:020000040000fa
:0401d40032020000f3
:020000040000fa
:0401d80032020000ef
:020000040000fa
:0401dc0032020000eb
:020000040000fa
:0401e00032020000e7
:020000040000fa
:0401e40032020000e3
:020000040000fa
:0401e80032020000df
:020000040000fa
:0401ec0032020000db
:020000040000fa
:0401f00032020000d7
:020000040000fa
:0401f40032020000d3
:020000040000fa
:0401f80032020000cf
:020000040000fa
:0401fc0032020000cb
:020000040000fa
:10020000cf8f20000eff27000e01880000000000a5
:10021000000020000000e000020032000001200089
:100220002002880014000700050107000000e0001c
:1002300003003a0020612100010020000200370085
:100240000000200001002000810f7000010032003a
:1002500014000700000020000000e000020032004f
:100260000000020000000000f8140200000000007e
:100270000040da000000fe004440a900a005200074
:100280000000e00003003200002020009001880000
:100290004440a800000006008a1f78008b1f7800e9
:1002a00000000600a1028800800478000000eb0036
:1002b0001f003700e284440054a0b4009905ba003e
:1002c000e284440054a0b4009906ba00e2844400d9
:1002d00054a0b4000006eb00476fde00fd07b2003b
:1002e000ae018800636ce10003003a00eaff0700fa
:1002f0000000eb000e003700606ce10008003a00df
:10030000004deb000a05e800020039003420ec0043
:100310000af0a0008b05e900f9ff3e000400370059
:100320006168e100010032000086eb000b0007006d
:1003300019c7ba001905ba000e04e00003003a001c
:100340000a00e000dbff3a0000000600fe07b200f2
:10035000ae0288008a047800f5ff37000cd0a300b5
:10036000e20f4d001c00390089027800354dba00bb
:100370000a05e800020039003420ec000af0a00071
:100380008b05e9000f003200254dba000a05e80090
:10039000020039003420ec000af0a0008b05e900cf
:1003a000080032000c00e0000600320015cdba0053
:1003b0000a05e800020039003420ec000af0a00031
:1003c0008b05e9008984e80054a0b4000b00e0002c
:1003d000e2ff3a00000006009902ba00055d7800cd
:1003e0008b05e900f7ff3200c82ade00055d7800c2
:1003f0008b05e900f3ff32000c00e000f1ff320052
:1004000019ddba00eeff370094030400000000007d
:10041000940d040000000000000004000000000033
:100420003600f800809fbe00829fbe00849fbe0001
:10043000869fbe000000fa00a01d800000407800ea
:10044000f20907008bc0a9000080fa004f03be002c
:100450004f02be004f01be004f00be003600f90043
:10046000004006000040da000000fe000a00fa002a
:1004700011002000b1bf9f00c0bf9f006a805700dd
:100480005e0607004fb897000080fa0000000600e3
:100490000a00fa00e20f500034003e00a04780003e
:1004a000e10f500003003200e20f500011003a004b
:1004b0000c003700833920000300e00001003a00ff
:1004c0000040da009803e20002003500a023ef00ac
:1004d00099e3a8009b43ab000d003a009b43a800a2
:1004e0000b003700e33a20000300e00001003a006f
:1004f0000040da00ae03e20002003500b623ef0050
:10050000afe3a800b143ab0001003a00b143a8003b
:10051000820178000b0037003102fb00e10f500030
:1005200004003a009b23ab00feff3a00e41c880065
:1005300003003700b123ab00feff3a00941d880092
:100540008301e9000300e000f3ff3a00e10f5000ef
:1005500003003a009b03ab00feff32000b003700a4
:10056000b103ab00feff320008003700330020006b
:10057000b3bf9f00c0bf9f00d1bf9f00e2bf9f00dd
:100580006a8057001f0607006fb9970002007800c5
:100590000080fa00000006000a00fa005100200066
:1005a000b1bf9f00c0bf9f006a80570017060700b9
:1005b0005fb897000080fa0000000600889fbe0028
:1005c00080047800d04780000000e00004003a007a
:1005d0000e0007000084eb000000e000080035007a
:1005e000d84780000900e0000500320009004400ff
:1005f000060007000000e00001003d000084eb0061
:10060000080078004f04be0000000600800078005b
:100610000100e00003003a0000002000d0478800fd
:10062000000005000080eb0002002000828f5000d7
:1006300002003e00d14788000000eb0000000600e9
:10064000000005008001780002003700b1597800f1
:100650000201e9000200e000fcff3a000000060091
:100660002183200045020700800078000080eb0015
:100670000100e0000400350021832000a0002000dc
:10068000020007004f80de0000000600889fbe00c9
:100690008a1f78000004be00c90090006900900025
:1006a000808f50000600390009007800970207008b
:1006b000800078000080eb000100e00017003500aa
:1006c000084578004900900008587800c004980058
:1006d0001900780000b8a30004003a0000a8a300a5
:1006e00008003200ea4f540006003a000900780082
:1006f000e7010700800078000080eb000100e000c7
:1007000006003a0000c0200019006000020032001c
:1007100049009000e00498000a80fb004f05780033
:100720004f04be0000000600881f78000204780015
:1007300008017800c3ff0700080040004f0478005c
:10074000000006000000fa00881f7800000478000e
:10075000ea8157003fb997008800780040392000af
:10076000070007000000e000020035008040eb00b9
:10077000017478004f0478000080fa000000060041
:100780006200fa00889fbe008a1f7800000578008a
:1007900081047800020478008300780080f92f003b
:1007a0000f0040008b0407009a979f00a9979f00b5
:1007b0000000eb00b09f9f001885fb008a04fb003f
:1007c0000a05ea004f55de0050022000808f5400d9
:1007d0000d003200e10f55000b003a000a017800cd
:1007e000880078002f9097009f91970003000100e8
:1007f000a0979f000000e0008e0032003f98970015
:100800000000e800b09f9f000a044400500220004e
:10081000808f5400040032000900e000e6ff3a0037
:100820003f989700840037000000eb00909f9f00e6
:10083000809f9f00f0979f00e0979f00d0979f00b8
:10084000c0979f0007003700a18e200001005000d4
:1008500000004000e18d200061007800df989700e3
:1008600001007000d09f9f00880478000904780080
:10087000384578008a00fb00a08e200007020700a0
:100880000000e000f0ff3a00a1c2b300814f550024
:100890000e003a00cf8897000180e900c08f9f00ca
:1008a00010007800c09f9f000000e00005003d00a0
:1008b0000000ea00c09f9f005f9897000020a00002
:1008c000d09f9f000904e8000f003700c09f9f00e1
:1008d0000000eb0005003700f2ff2700820f5000f8
:1008e000020032006a01b900028040000904780069
:1008f00088047800b900fb000103b100e98f5000c3
:10090000f5ff3600c09f9f00e0c2b300984f100073
:10091000020032000080eb0019003700a0c2b300d3
:10092000d84f100007003a00cf8897000180e900f7
:10093000c08f9f0010007800a09f9f000804e8006f
:10094000100037000000eb00a09f9f008800780097
:1009500005003700f3ff2700830f5000020032002c
:100960006a02b900040041000104780088007800a0
:100970003101fb000203b100e90f5100f5ff360021
:10098000a09f9f00984478008900fb00608d2000a4
:10099000c20107000000e000020032000804e80085
:1009a000010037008044eb00c97f9f0080c6b30080
:1009b00080cf540004003a0098cf14000a003a0097
:1009c0006640500006003700c0c6b30080cf540018
:1009d00005003a0098cf140003003a00654040003b
:1009e000c07f9f000804e8001801fb00e3fb2f0014
:1009f0008f81410081f92f008f804000a0f92f00e6
:100a00000f004000100007000000e00009003a005d
:100a1000e1fb2f008f804000a0f92f000f00400065
:100a2000300307000000e000020035000804e80081
:100a300061ff37000080eb004f0578004f04be00d7
:100a40000080fa0000000600889fbe008a9fbe005a
:100a5000e4c6b300844f5100be00320010003c00d9
:100a60006b425200844f51001800320005003c00d8
:100a700054c2b300844f5100f600320084c5b30065
:100a80000f00370044c6b300844f510014003200f9
:100a900065424200844f5100f1003a0010003700d7
:100aa00004c7b300844f5100dd003200560035000a
:100ab00065424200844f51005300320063424200bd
:100ac000844f5100e6003a004f0037001181e900e1
:100ad00082087800f000900012417800de003700b4
:100ae00020629000c5c6b300854f520007003a004f
:100af0009102780064825200840878001402be00db
:100b00004fabde00860378001400370015c7b30032
:100b1000854f520003003a00110478006802540027
:100b200005003700a5c6b300854f520006003a0005
:100b30009104780068825400840878005403be0051
:100b40004402be00050037001182e90084087800e5
:100b500014027800cfa2de00612bb9000498be0019
:100b60000690be00a060900088c6b30088cf5000f9
:100b70000d00320028c6b30088cf500004003a00b0
:100b80000402fb00cfa2de00612bb9000800370091
:100b900048c7b30088cf50000300320066444400c9
:100ba00088cf500004003a00cfa2de00612bb900cc
:100bb0000498be000690be003002be002003be00b6
:100bc000f0009000e00f5200e08f5a00e00f5b0051
:100bd000e08f5b0002003d00d4c2b3000800370084
:100be000001290000418a30002003200b4c2b30047
:100bf000030037000408a3005100320004c2b30010
:100c000084f178004c00370020629000c5c6b30024
:100c1000854f520008003a00110578006402550023
:100c2000840878001404be006055b8000802be00b5
:100c30000a03be001400370015c7b300854f5200e9
:100c400003003a00910478006882540005003700e0
:100c5000a5c6b300854f520006003a001105780082
:100c600068025500840878005403be004402be00a8
:100c7000050037001182e90084087800140278002a
:100c80008002eb006033b8000498be000690be00fe
:100c9000a060900088c6b30088cf50000d003200dd
:100ca00028c6b30088cf500004003a000482fb003d
:100cb0008002eb006033b8000800370048c7b3007b
:100cc00088cf5000030032006644440088cf5000b3
:100cd00004003a008002eb006033b8000498be00c4
:100ce0000690be00801090000138a300140032006e
:100cf0003002be002003be00e00f5200e08f5a0019
:100d0000e00f5b00e08f5b000d00320081c7b30095
:100d1000814f51000300320081c5b300814f510063
:100d200007003a00f000900004c3b30084f178009b
:100d30008100e80082f178008100e80071009800ed
:100d4000f0009000818141006300980082407800ab
:100d50003e003700a0619000c4c6b3001181e900d5
:100d600084cf5100220032000a003c00644252004d
:100d700084cf51002500320004c2e80084cf510026
:100d8000130032006842520084cf51001e003a0026
:100d90000a00370044c7b30084cf51001b00320063
:100da0006642420084cf510018003200694252006e
:100db00084cf510014003a00050037008208780003
:100dc0009200780040589000804878002c0037004e
:100dd0008208780092007800600a9000cfa2de00be
:100de000612bb9008498be008690be0024003700b5
:100df000820878009200780060099000cf91de00b0
:100e00008288be001e0037001181e9008208780048
:100e10009200780060089000800878001800370081
:100e20001181e9008208780012027800cfa2de006a
:100e3000612bb9000498be000690be00f00090003f
:100e4000818141006300980081c7b300f60007006c
:100e50000b003700f000900082f1780006003700a8
:100e6000f0009000818141000204e00001003a009e
:100e700052c2b300824978008100e80071009800f6
:100e80000000eb004f05be004f04be00000006004e
:100e9000889fbe008a1f7800000478000800e000e8
:100ea0000d003a0008882000700544008004eb0023
:100eb000580078000000e00004003200f4ff070052
:100ec0000000e00001003d008084eb008a0f540028
:100ed000f7ff3a00250037000000220018006000ec
:100ee0008004eb0021003200a80490000f003700be
:100ef00009015100384090000000fb008900780093
:100f000063fd07000000e00007003c00280090009f
:100f10004004980060049800500c98001890a000bd
:100f20008084eb0011003700808444004801900069
:100f3000828f5400eeff3900280090004004980092
:100f40009800780002c020000281600001003a0091
:100f50003800900001e8a30002003200600498000d
:100f600001003700500c98008004eb000900780065
:100f70004f0578004f04be0000000600889fbe00a9
:100f80008a9fbe0080047800010478002c0037009e
:100f9000c800900068009000808f50000400390065
:100fa00008007800590007000000e0003700350015
:100fb000004020001800600009003200a10020005d
:100fc0000900780047000700800578000b00e0006a
:100fd00003003200618514000a85450004003700d3
:100fe0000900780039000700000578008005eb0053
:100ff00048009000e8009000808050008a8f5000e8
:1010000002003100010578008005eb000a0178003c
:10101000890078008bfd0700480090000a0040001e
:10102000400498000b00e000040032000800780043
:1010300097ff07000000e00014003a008a84440093
:101040001904e000d2ff3a00008020001800600080
:1010500006003200080078008dff0700800078004d
:101060000080eb000100e00009003a0001c0200010
:10107000988060000000eb000500320048009000fe
:10108000600498000000eb00010037000080eb00d6
:101090004f05be004f04be000000060002003700ee
:1010a0000304e0000600320000017800020078002e
:1010b000b041780081cf5100f9ff3a0001003700bc
:1010c0000001eb00020078000000060080007800bc
:1010d000010178003104e000fdff3a0000005100fa
:1010e000000006000001eb0000027800b04178002b
:1010f00081cf510001003a00040178000304e000b0
:10110000f9ff3a000200780000000600889fbe0048
:101110008a1f780000047800c800900068019000e1
:101120000000eb00828f50003c003900180078006e
:101130002200290002016000e20f51000700320086
:10114000012024000000e00001003d0001202000fb
:10115000008c70000080eb00300037000200260099
:1011600002006000820f500009003a003800900031
:10117000808f5000060039000800780044ff070007
:10118000800078000080eb000100e00023003a00be
:101190001805780000c020000000650018003a0023
:1011a000a80490006002200008004000808f5400d6
:1011b00013003a0000202000dc0207002004980001
:1011c0000000e00005003a00290498004904980056
:1011d0008904e80039049800080037000a60a0007c
:1011e0000a0c780040049800012020008080400014
:1011f00031049800400c9800500c9800f901070049
:101200002800900050049800380090006004980076
:1012100000002600180c70000000eb004f0578005d
:101220004f04be0000000600fc874700889fbe00f8
:101230008a9fbe008c9fbe008e1f7800000678003b
:1012400080c5b30080cf50000a00320077404000d4
:1012500080cf50000a0032006940400080cf50002b
:101260000b003200508c200080bf9f00ae00200099
:101270000a003700428b200082bf9f000600370023
:10128000538c200083bf9f008e0020000300370096
:10129000548c200084bf9f000e0120003c02be0041
:1012a0002c03be000605be000404be0040c6b30009
:1012b00080cf5000030032006540400080cf5000d6
:1012c0000b003a00e00f5200e08f5a00e00f5b0085
:1012d000e08f5b0006003d006000b8006011b800c0
:1012e000040450008584580006055900878559007c
:1012f000e80f57000400320040002000f00f5700b4
:1013000038003a000100370030002000e00f5400a0
:10131000e08f5c00e00f5d00e08f5d0004003a00ac
:10132000dc0890008d0120000100e0000600320082
:101330008e00e900888060008fba9700e5c07800d1
:10134000f1ef9f007d012000800078008100e9001e
:10135000050033008b05d1000a85d3008984d300b2
:101360000884d300f9ff3700089ebe000a96be002d
:10137000120037008d06e9008e00e90084806000cd
:101380000fb99700e2c1780082fd2f000f014100e4
:1013900003f17e00800078008100e9000500330041
:1013a0008783d1000683d3008582d3000482d300d3
:1013b000f9ff3700049ebe000696be003c02be0048
:1013c0002c03be00e00f5200e08f5a00e00f5b00dc
:1013d000e08f5b008b0034000d00e000e5ff3c0077
:1013e000880037002c60900081c6b300814f500008
:1013f0000b00320006003c000004e0000800320050
:10140000e6c05000814f50004e003a000400370003
:10141000c1c6b300814f50004a003a002100370096
:101420000800e00004003a005c0890008d012000f4
:101430000000e00006003200110009000e84d80010
:101440000fb99700e2c07800f1ef9f007d01200006
:10145000110009000e84d8000a00370011000900ad
:101460000e04d8008d06e9000e81b9000204540074
:101470008fb8970061417c0081fd2f008f80400074
:1014800082f07e00000478000800e00002003200d4
:101490000d00e000f1ff3c00cfc4de00614db9005b
:1014a00025003700e00f5400e08f5c0004003a0094
:1014b0005c0890008d0120000000e0000700320071
:1014c0006171b9000800be00710207008fb9970072
:1014d000e3417800f3ef9f007d0120006171b900c6
:1014e0000800be005a0207000b0037006171b90006
:1014f0000800be00470207008d06e90000f1b900b0
:10150000020454000fba9700e4427c0084fd2f00cf
:101510000f02420005f27e000004be00e00f500002
:10152000e08f5800020032000d00e000efff3c00a9
:101530004fcdde008a057800089ebe000a96be00e8
:1015400030003700e00f5400e08f5c00e00f5d00da
:10155000e08f5d0004003a005c0890008d012000df
:101560000000e000090032006172b900612bb9008f
:101570000800be000a01be00ee0207000fba970085
:1015800064427800f4ef9f007d0120006172b90091
:10159000612bb9000800be000a01be00de02070090
:1015a0000d0037006172b900612bb9000800be0060
:1015b0000a01be00e30207008d06e90000f2b9004f
:1015c000040454008fba970065427c0085fd2f000b
:1015d0008f82420084f27e00009ebe000296be0012
:1015e0003c04be002c05be00e00f5400e08f5c0000
:1015f000e00f5d00e08f5d00020034000d00e000b0
:10160000e8ff3c00e80f570010003a000c10900073
:101610000038a3000d003200f78f560006003e0090
:1016200085fd2f008f824200e5c07e0000c3b3001d
:1016300080cf5000050032008d06e90002c3b300e0
:1016400081fd2f008f80400082f07e00788116009f
:10165000120e98006c00900083fd2f008f814100d6
:101660008d804100f7fb07001c089000dc0890000b
:10167000810f500006003d0000805000000e9800d1
:101680000c1090000040a100001698000f003700d9
:101690000100e0000d003d008c109000f48060001f
:1016a000f08f500009003a007c099000fc00900087
:1016b000810051000c099000828050000080500091
:1016c0004240a90001003400000e98004f07780046
:1016d0004f06be004f05be004f04be00cf01b10053
:1016e000000006000400fa00889fbe008a9fbe002a
:1016f0008c1f78000004780001067800f80d900037
:10170000780090008085550008089000808555007d
:1017100018089000808555002808900080855500a5
:101720003808900080855500480890008085550055
:101730000002220090bf9f0000032300a0bf9f0073
:10174000081090000028a30015003a000b00e000ec
:10175000130034000b0578008a047800e20f55006e
:101760000100360029002000c8019000090178001e
:10177000ee805700580090000300010050049800cc
:101780000000e0008c003200680890000900400072
:10179000600c9800090555004240a900eeff3c008e
:1017a000780190000200e0000c003400c8019000b5
:1017b0008c0078005800900003000100500498004d
:1017c0008080eb000000e0007c003200e808900020
:1017d0007800900000804000600c9800880c900019
:1017e0000900e0001100340009057800e28f540080
:1017f000010036002a002000c80190000a0178008c
:10180000ec8057005800900003000100500498003d
:101810000000e00068003200680890000a00400004
:10182000600c98008a845400edff3700180990007e
:101830000200e0000c003400c8019000e8009000b5
:101840005800900003000100500498008080eb00d5
:101850000000e00059003200e808900018089000ed
:1018600000804000600c9800a80c90000900e00087
:101870001100340009057800e28f540001003600a1
:101880002a002000c80190000a017800ec8057006f
:101890005800900003000100500498000000e00090
:1018a00045003200680890000a004000600c980073
:1018b0008a845400edff3700380990000200e000f0
:1018c0000e003400e800900018089000808040006e
:1018d000c8019000580090000300010050049800d7
:1018e0008080eb000000e00034003200e808900047
:1018f0003808900000804000600c9800c80c9000f0
:101900000900e0001100340009057800e28f54005e
:10191000010036002a002000c80190000a0178006a
:10192000ec8057005800900003000100500498001c
:101930000000e00020003200680890000a0040002b
:10194000600c98008a845400edff37000810900066
:101950008000eb000028a300180032000b00e0001c
:10196000160034008b04780009057800e28f5400db
:10197000010036002a002000c80190000a0178000a
:10198000ee805700580090000300010050049800ba
:101990000000e00008003200680890000a004000e3
:1019a000600c98008a8454004240a900eeff3c007d
:1019b0008000eb00010037008080eb000100780020
:1019c0004f0678004f05be004f04be000080fa00ad
:1019d00000000600010878000000060040d9200041
:1019e00061003700881f7800688f20001804e0002d
:1019f00003003a00f9ff070020c0b300004c780054
:101a00004f04780000000600889fbe0000047800a4
:101a1000080078001efd0700800478000004200004
:101a20001800600002003200280090005a000700f1
:101a30000000eb0020049800384090000004e00013
:101a4000050035000000fb0088fa07000000e000f8
:101a5000010032008084eb00181090000000e000cc
:101a600008003200ccfa07000000e000010032005c
:101a70008084eb0018109000470007000000eb0086
:101a800010149800000820001800600015003200b3
:101a90000001eb006000b800238820000202d000a3
:101aa00063027a00880f520005003a0000004000ef
:101ab00081804800008041000008eb0006003700ec
:101ac00061004000e08048000201e800e80f50009b
:101ad000e08f5800f0ff3a00080078002e00070061
:101ae0000e003700000c780000c0eb003044980076
:101af0006002200008004000200498004004980084
:101b000050049800400c980060049800500c980015
:101b10007004980076004400000c980009007800da
:101b20004f04be0000000600881f78000004eb0090
:101b30006140b800e2ff2f00f3ff2f00d70007003d
:101b400002892000620078000000e00001003200fd
:101b5000adff07000804e800e80f5400f4ff3a0066
:101b60004f04780000000600010020000100e000a2
:101b700008003200010080000100e0000500320092
:101b80008100e900010088008100d000020080008f
:101b900000b17800000006000000e0002f003200d5
:101ba000c0017800e38f51002c0036000308a30029
:101bb0002a003a00914780000100e0000200320054
:101bc000810f5000040031001100980090478800f8
:101bd0001600370082007800110190000200e0003a
:101be00002003200800f5100faff39001102780024
:101bf00084824000850f500018003900808f520009
:101c000003003a0083084200010078000700370013
:101c10000200e0000300320083014000830f510006
:101c20000e0039001200980090009800900090007b
:101c30000100e0000900320010014000828f5000d6
:101c400006003a00028f20000009eb001001780026
:101c5000110841009100900011009800000006005a
:101c6000889fbe0000047800814780000100e000ea
:101c700002003200010078000d003700914780001b
:101c8000208f200004003700910f540025003600fb
:101c90000180e800910090000100e000faff3a00a6
:101ca00010003700920f54001e0036000280e8003a
:101cb000100178000200e000faff3a0011017800fc
:101cc00091478000208f200004003700910f5400be
:101cd000140036000180e80091009000828f5000cf
:101ce000faff3a00c9478000888f54000100310094
:101cf0008804780009007800360007000000e00042
:101d000004003a00888f5400050032008904d10095
:101d1000f5ff3700091878009fff0700d2ff370052
:101d20000000eb004f04be0000000600881f780092
:101d3000630440000800a1008000eb00800f540005
:101d400021003600e30f540001003e00480020004f
:101d500008007800c2ff07008000eb000000e000f0
:101d600019003200900078009101780064815100e0
:101d7000880f510003003100110190000208780023
:101d800007003700088140000208780091019000a8
:101d900013019800100178001109140088087800d8
:101da000100178000000eb000200e00004003200a7
:101db000920190000300e000010032000280e80080
:101dc000804788008180e800010078004f04780097
:101dd00000000600800078000000eb000100e00039
:101de0000500340001007800f4f90700e10f40001d
:101df00001003a000000eb000000060000c0da001d
:101e00000000060000c0da000000060000c0da0092
:101e100000000600839f68000100e00002003d0012
:101e200060001000e08018000300e00002003d00a8
:101e300060011100e0811900050007004f00e0007b
:101e400002003b0060001000e08018000000060067
:101e50006022b800060220000000d0008180d2007d
:101e60000482d2008582d2000000a000020252004b
:101e700083825a00030031000202420083824a003a
:101e80000000a1000603e900f3ff3a00000006008d
:101e9000efff07000400be0000000600020ab900c0
:101ea000001bb9000200b80081004200810043001d
:101eb00000000600889fbe008a9fbe0030044200da
:101ec000b0844a0030054b0090854b006000b100a3
:101ed0000898be000a90be000440e10005c8e10079
:101ee00006d0e10007d8e1000200310068004000a0
:101ef0001008e8004f05be004f04be0000000600b9
:101f0000889fbe008a9fbe003004be002005be0030
:101f10000418540005985c0006185d0007985d00e1
:101f2000110020000440e10005c8e10006d0e100f6
:101f300007d8e100010039008000eb001088100094
:101f40004f05be004f04be00000006001200fa005c
:101f5000889fbe008a9fbe008c9fbe00e0b79f0096
:101f6000f1b79f0082bf9f0093bf9f000605be0090
:101f70000404be000000eb00d0b79f00c0b79f0074
:101f8000b0b79f00a0b79f0090b79f0000067800f1
:101f90005fb19700cfb09700820141003fb097003a
:101fa0000200e00004003d00370007007e8057007b
:101fb000c0ff070003003700330007007e80570092
:101fc000cfff0700dfb697000d00e0000c003500e2
:101fd0006fb29700ffb297000fbb97009fbb9700af
:101fe00010002000010020006011b8000002720003
:101ff0008182720002037300838373001b00070059
:102000000c06e80001042000810f5600e0ff3a00b2
:102010000d00e00004003d000802be000a03be00ff
:102020007e805700a3ff07005fa897000000e00034
:1020300005003a001fb29700afb297003fb3970078
:10204000cfb39700090007006fb09700ffb097006b
:102050000fb997009fb997004f06be004f05be000d
:102060004f04be000080fa000000060001000700d7
:1020700000000600a4b79f00b5b79f00c6b79f0039
:10208000d7b79f00000006004f09de008281710073
:10209000b3b79f004f01de00818040008280700056
:1020a000a1b79f008fb097004f09de0000004000ed
:1020b0000200700090b79f007fa897004f01de00dc
:1020c000818040008280700081b79f000d00070072
:1020d0004f3ade000000400004007000f0af9f00a7
:1020e000080007000402420085824a0006034b00f4
:1020f00087834b00dfff07000802be000a03be0013
:10210000000006002fb29700bfb297004fb39700b0
:10211000dfb3970000000600881f78001800200039
:10212000881f780089ff07008f87e9004f04780037
:1021300000000600801feb0084ff07008f87e90086
:1021400000000600889fbe008a9fbe00e00f50007e
:10215000e08f5800e00f5900e08f59000c003d005f
:102160006044b8006055b8000000540081805c00f5
:1021700002015d0083815d0018002000150007004a
:1021800008003d00180007000004eb0005003700c0
:102190000004eb000f00070002003d0012000700e2
:1021a00018002000dcff07000800e00006003200f5
:1021b0006022b8006033b8000000520081805a00ed
:1021c00002015b0083815b004f05be004f04be002f
:1021d00000000600e00f5200e08f5a00e00f5b00a5
:1021e000e08f5b00000006006044b8006055b80056
:1021f0000402540085825c0006035d0087835d0055
:1022000000000600889fbe008a9fbe008c1f7800d9
:10221000e00f5000e08f5800e00f5900e08f5900a8
:102220000d003d006044b8006055b8000000540047
:1022300081805c0002015d0083815d001c00200044
:102240000820e10009a8e1000ab0e1000bb8e100b4
:102250000d003d00080037000006eb00e00f5200c3
:10226000e08f5a00e00f5b00e08f5b0006003d004e
:102270006044b8006055b8000402540085825c00d8
:1022800006035d0087835d00aaff07000c00e000e5
:10229000060032006022b8006033b800000052002f
:1022a00081805a0002015b0083815b004f06780049
:0c22b0004f05be004f04be0000000600f9
:020000040000fa
:1022bc002d4100006666000069630000686500003f
:1022cc0075720000202000004c430000442d0000db
:1022dc00002d00002054000050330000202000008e
:1022ec00484c000045450000343000003720000009
:1022fc002d0000000d0a00002d2d00002d200000e7
:10230c0054500000332d0000204100006666000090
:10231c00696300006865000075720000204c0000c5
:10232c0043440000202d00002d2d00000d00000066
:10233c005072000065730000656e00007420000090
:10234c003a2000002536000064000000546f0000a5
:10235c00746100006c2000003a2000002538000059
:04236c006400000009
:020000040000fa
:102370000000fa006626ef006206a9006b46a9007d
:102380006226a9006b26a9006246a9006266a90020
:102390006286a90062a6a9006ac6a90062c6a90051
:1023a0006ae6a900a226ef00a6c6a9009ec6a8005c
:1023b000a6e6a9009ee6a8009fa6a80062e6a800df
:1023c000b626ef00b226ef00a286a9009e86a900dd
:1023d000a2a6a9009ea6a9007be6a90077e6a9000f
:1023e0000080fa00000006000200fa00004f7800aa
:1023f000114798001e80fb00e30f50002d003200b3
:10240000e30f500007003c00e10f500015003200c0
:10241000e10f50001d003c000000e0000800320009
:102420004c003700e50f500036003200e50f500039
:102430002a003500e60f50003c003200450037000e
:102440001e409000614060000080fb006100600061
:10245000313380000100a10001007000303388009a
:102460003c0037001e409000614060000080fb008f
:102470006100600000004000313380000110a100c5
:102480000100700030338800320037001e40900099
:10249000614060000080fb00610060004200dd00e0
:1024a000313380000120a10001007000303388002a
:1024b000280037001e409000614060000080fb0053
:1024c000610060004300dd00313380000130a10075
:1024d00001007000303388001e0037001e4090005d
:1024e000614060000080fb00610060004400dd008e
:1024f000313380000140a1000100700030338800ba
:10250000140037001e409000614060000080fb0016
:10251000610060004500dd00313380000150a10002
:1025200001007000303388000a0037001e40900020
:10253000614060000080fb00610060004600dd003b
:10254000313380000160a100010070003033880049
:10255000000000000080fa00000006000200fa00ff
:10256000004f78001e80fb00e30f50003600320061
:10257000e30f500007003c00e10f5000180032004c
:10258000e10f500023003c000000e0000800320092
:1025900061003700e50f500045003200e50f5000a4
:1025a00036003500e60f50004e0032005a0037006a
:1025b00030338000610060000000e0000400320061
:1025c0008040eb000040eb0087ff0700520037001f
:1025d00011c0b3000040eb0083ff07004e0037003e
:1025e000303380000000d100614060000004a20090
:1025f000614060000080fb0061006000000040005e
:10260000313380000110a1000100700030338800d8
:1026100041003700303380004200de00614060003e
:1026200000c0ea00614060000080fb0061006000c3
:102630004200dd00313380000120a1000100700064
:102640003033880034003700303380004300de0030
:102650006140600000c0ea00614060000080fb0053
:10266000610060004300dd00313380000130a100d3
:1026700001007000303388002700370030338000bd
:102680004400de006140600000c0ea00614060007c
:102690000080fb00610060004400dd0031338000f9
:1026a0000140a10001007000303388001a0037009b
:1026b000303380004500de006140600000c0ea0069
:1026c000614060000080fb00610060004500dd00ab
:1026d000313380000150a1000100700030338800c8
:1026e0000d003700303380004600de00614060009e
:1026f00000c0ea00614060000080fb0061006000f3
:102700004600dd00313380000160a100010070004f
:1027100030338800000000000080fa00000006004e
:102720000000fa00a286a900b626ef00a2a6a90022
:102730007be6a90021000700409c20006a000700fa
:1027400030002000b03588008002200066000700bd
:102750004a00070050002000630007004700070000
:102760005000200060000700440007002000200007
:102770005d00070080c3b30047000700a00f2000e2
:1027800059000700f0c0b30043000700a00f20006d
:102790005500070060c0b3003f000700a00f2000f5
:1027a0005100070010c0b3003b000700409c200010
:1027b0004d0007000080fa00000006000200fa0049
:1027c0000868ef000040eb00004f7800050037007c
:1027d0001e80fb002189200002c2b30082707800b5
:1027e0001e4fe8001e407800ef4f5000f8ff360003
:1027f000208a20008040eb00014878000968ef0043
:102800000040eb00004f7800050037001e80fb0001
:10281000318a200002c2b300827078001e4fe800a7
:102820001e407800ef4f5000f8ff3600308b20003c
:102830008040eb00014878000080fa0000000600ac
:102840000000fa0008c8bf00e14f500003003a0042
:1028500020892000430007000868ef0009c8bf0076
:10286000e14f500003003a00308a20004f0007007b
:102870000968ef000080fa00000006000000fa007e
:10288000a286a800a000200017000700a286a900c9
:102890000080fa00000006000200fa00004f7800f5
:1028a0001e80fb00b03588007be6a900f3ff07001f
:1028b000a00020000c0007000080fa0000000600c5
:1028c0000200fa00004f78001e80fb00b03588003f
:1028d0007be6a800e9ff0700a00020000200070037
:1028e0000080fa00000006000600fa0020079800a9
:1028f000ae009000010f78000b0037000000eb00e5
:1029000010079800030037001e0090000000e80048
:10291000100798009e009000e0062000808f500075
:10292000f9ff36001e0fe9001e007800e10f50008d
:10293000f2ff3e000080fa00000006000000fa00ee
:1029400000c8b300d4ff07000080fa0000000600b2
:102950000000fa0000ccb300cfff07000080fa00af
:10296000000006000400fa0010079800f3ff0700bb
:102970000040eb00004f7800070037001e00900079
:10298000104078009e0090008100e8001107980038
:10299000cbff07001e4fe8001e407800ef4f5000ad
:1029a000f6ff36000080fa00000006000400fa007e
:1029b00010079800e6ff07000040eb00004f78008a
:1029c000060037001e80fb009e0090000080400043
:1029d00010407800baff07001e4fe8001e40780044
:1029e000ef4f5000f7ff36000080fa0000000600ad
:1029f0000000fa0020002000a04788000200070025
:102a00001c000700feff37000000fa0058fe070018
:102a100030032000ea00070041ff07000028ef0014
:102a20000268ef000368ef000468ef000568ef003c
:102a30000668ef0012012000e1152900208920001e
:102a400000f7070010c0b30008e8b700120120002b
:102a5000f1162900308a2000faf6070010c0b300f2
:102a600009e8b70000182900fdf607000080fa0009
:102a7000000006000000fa0071ff07000135800029
:102a800000002200008060000000e00004003a0026
:102a900011c0b3000040eb0053fe070003003700f5
:102aa0008040eb000040eb004ffe0700004080003c
:102ab0000000e80000408800014080000071220012
:102ac000808f5000030036000028ef0010c0b300d4
:102ad000a2fe070001358000000420000080600095
:102ae0000000e0000e003a0002c8bf000004e00051
:102af0000a003a0010c0b30002e8b70005c8bf00e2
:102b00000040e80005e8b70006c8bf000040e80044
:102b100006e8b70026000700010037000268ef0052
:102b20000135800000002200008060000000e0000d
:102b30000e003a0003c8bf000004e0000a003a009b
:102b400010c0b30003e8b70005c8bf000004e000f0
:102b50000300320005c8bf000040e90005e8b700e7
:102b600013000700010037000368ef000135800003
:102b700000082000008060000000e0000a003a0029
:102b800004c8bf000004e00006003a0010c0b30013
:102b900004e8b7000568ef000668ef0004000700ce
:102ba000010037000468ef000080fa000000060012
:102bb0000000fa0005c8bf000080fb00801f7800fd
:102bc000e0192900801f780020892000ddf6070029
:102bd000e487570010c0b30008e8b70006c8bf007c
:102be0000080fb00801f7800c01a2900801f780039
:102bf000308a2000d3f60700e487570010c0b300e6
:102c000009e8b7000080fa00000006000200fa00a0
:102c1000004f78001e407800a30007000080fa00f3
:042c200000000600aa
:020000040000fa
:102c24009208000022000000800000000808000054
:102c340002000000800000000008000008000000fe
:102c440080000000f4080000020000008200000080
:102c5400010000000a080000880000008200000053
:102c6400010000000030080031083000083008007e
:102c740030083000082008000000000000000000b8
:102c84000000000000000000000000000000000040
:102c94000000000000020800010158000859080063
:102ca4005808580008580800580848000800000050
:102cb4000000000000000000000000000000000010
:102cc40000000000000000000000020008020200f2
:102cd40080088100088008008008800008800800bf
:102ce4007008000000000000000000000000000068
:102cf40000000000000000000000000000000000d0
:102d04000a083200085a0800000000000000000011
:102d14000000000000000000d60800001a000000b7
:102d240082000000686a6c00747a4c0000000100a4
:102d34000002000004000800001000000000200051
:102d44002b2d230030000000b408000022000000f6
:102d54008200000030313200333435003637380019
:102d640039414200434445004600300031323300cb
:102d740034353600373839006162630064656600b3
:102d840000000000f60800000200000080000000bf
:102d9400f8080000020000008200000004000000a7
:102da400f00800000400000080000000fa080000a1
:0c2db40002000000800000000000000091
:020000040000fa
:102dc0000200fa00000f7800ae23ef00b023ef00fe
:102dd000caa6a800c6a6a900c686a8000108800049
:102de000f00b2000008160006004200071052000cd
:102df00003102000804978008149780082497800da
:102e0000b13d800000fc2f0000806000a000b300f6
:102e1000b03d8800213f8000f00f280080806000d6
:102e20000050200001007000203f88000008800052
:102e3000000178000260a0006004200071052000fd
:102e40000310200080497800814978008249780089
:102e5000afe3a800ae63a800ae03a900711d800017
:102e600090ff2f0000806000701d8800ae63a800f6
:102e70009e007800b11d8800afe3a800b143a80010
:102e8000b183a800b1058000f08f2f0000806000a2
:102e90000080a000b00588009bc0a800b823ef0008
:102ea0000080fa00000006000400fa0020479800a5
:102eb00000000000811d80000010200000806000e4
:102ec0000000e000fbff32002e4090000080fb007d
:102ed000000f7800f00720001e0f60009e007800b1
:102ee000911d88000080fa00000006000200fa0030
:102ef000004f78001e407800ebff07000080fa00ca
:102f0000000006000200fa00000f780004003700fd
:102f10001e007800104078001e0fe800e2ff070056
:102f20001e007800104078000004e000f8ff3a002e
:082f30000080fa000000060019
:00000001FF
